{
  "contractName": "IdentityManagement",
  "abi": [
    {
      "inputs": [],
      "stateMutability": "nonpayable",
      "type": "constructor"
    },
    {
      "inputs": [
        {
          "internalType": "address",
          "name": "sender",
          "type": "address"
        },
        {
          "internalType": "uint256",
          "name": "balance",
          "type": "uint256"
        },
        {
          "internalType": "uint256",
          "name": "needed",
          "type": "uint256"
        },
        {
          "internalType": "uint256",
          "name": "tokenId",
          "type": "uint256"
        }
      ],
      "name": "ERC1155InsufficientBalance",
      "type": "error"
    },
    {
      "inputs": [
        {
          "internalType": "address",
          "name": "approver",
          "type": "address"
        }
      ],
      "name": "ERC1155InvalidApprover",
      "type": "error"
    },
    {
      "inputs": [
        {
          "internalType": "uint256",
          "name": "idsLength",
          "type": "uint256"
        },
        {
          "internalType": "uint256",
          "name": "valuesLength",
          "type": "uint256"
        }
      ],
      "name": "ERC1155InvalidArrayLength",
      "type": "error"
    },
    {
      "inputs": [
        {
          "internalType": "address",
          "name": "operator",
          "type": "address"
        }
      ],
      "name": "ERC1155InvalidOperator",
      "type": "error"
    },
    {
      "inputs": [
        {
          "internalType": "address",
          "name": "receiver",
          "type": "address"
        }
      ],
      "name": "ERC1155InvalidReceiver",
      "type": "error"
    },
    {
      "inputs": [
        {
          "internalType": "address",
          "name": "sender",
          "type": "address"
        }
      ],
      "name": "ERC1155InvalidSender",
      "type": "error"
    },
    {
      "inputs": [
        {
          "internalType": "address",
          "name": "operator",
          "type": "address"
        },
        {
          "internalType": "address",
          "name": "owner",
          "type": "address"
        }
      ],
      "name": "ERC1155MissingApprovalForAll",
      "type": "error"
    },
    {
      "anonymous": false,
      "inputs": [
        {
          "indexed": true,
          "internalType": "address",
          "name": "account",
          "type": "address"
        },
        {
          "indexed": true,
          "internalType": "address",
          "name": "operator",
          "type": "address"
        },
        {
          "indexed": false,
          "internalType": "bool",
          "name": "approved",
          "type": "bool"
        }
      ],
      "name": "ApprovalForAll",
      "type": "event"
    },
    {
      "anonymous": false,
      "inputs": [
        {
          "indexed": true,
          "internalType": "address",
          "name": "provider",
          "type": "address"
        },
        {
          "indexed": true,
          "internalType": "address",
          "name": "consumer",
          "type": "address"
        },
        {
          "indexed": false,
          "internalType": "uint256",
          "name": "tokenId",
          "type": "uint256"
        }
      ],
      "name": "AuthorizationGranted",
      "type": "event"
    },
    {
      "anonymous": false,
      "inputs": [
        {
          "indexed": true,
          "internalType": "address",
          "name": "provider",
          "type": "address"
        },
        {
          "indexed": true,
          "internalType": "address",
          "name": "consumer",
          "type": "address"
        },
        {
          "indexed": false,
          "internalType": "uint256",
          "name": "tokenId",
          "type": "uint256"
        }
      ],
      "name": "AuthorizationRevoked",
      "type": "event"
    },
    {
      "anonymous": false,
      "inputs": [
        {
          "indexed": false,
          "internalType": "uint256",
          "name": "tokenId",
          "type": "uint256"
        },
        {
          "indexed": false,
          "internalType": "string",
          "name": "uniqueId",
          "type": "string"
        },
        {
          "indexed": false,
          "internalType": "uint256",
          "name": "tokenType",
          "type": "uint256"
        },
        {
          "indexed": true,
          "internalType": "address",
          "name": "provider",
          "type": "address"
        }
      ],
      "name": "TokenCreated",
      "type": "event"
    },
    {
      "anonymous": false,
      "inputs": [
        {
          "indexed": false,
          "internalType": "uint256",
          "name": "tokenId",
          "type": "uint256"
        },
        {
          "indexed": true,
          "internalType": "address",
          "name": "provider",
          "type": "address"
        },
        {
          "indexed": false,
          "internalType": "string",
          "name": "newData",
          "type": "string"
        }
      ],
      "name": "TokenUpdated",
      "type": "event"
    },
    {
      "anonymous": false,
      "inputs": [
        {
          "indexed": true,
          "internalType": "address",
          "name": "operator",
          "type": "address"
        },
        {
          "indexed": true,
          "internalType": "address",
          "name": "from",
          "type": "address"
        },
        {
          "indexed": true,
          "internalType": "address",
          "name": "to",
          "type": "address"
        },
        {
          "indexed": false,
          "internalType": "uint256[]",
          "name": "ids",
          "type": "uint256[]"
        },
        {
          "indexed": false,
          "internalType": "uint256[]",
          "name": "values",
          "type": "uint256[]"
        }
      ],
      "name": "TransferBatch",
      "type": "event"
    },
    {
      "anonymous": false,
      "inputs": [
        {
          "indexed": true,
          "internalType": "address",
          "name": "operator",
          "type": "address"
        },
        {
          "indexed": true,
          "internalType": "address",
          "name": "from",
          "type": "address"
        },
        {
          "indexed": true,
          "internalType": "address",
          "name": "to",
          "type": "address"
        },
        {
          "indexed": false,
          "internalType": "uint256",
          "name": "id",
          "type": "uint256"
        },
        {
          "indexed": false,
          "internalType": "uint256",
          "name": "value",
          "type": "uint256"
        }
      ],
      "name": "TransferSingle",
      "type": "event"
    },
    {
      "anonymous": false,
      "inputs": [
        {
          "indexed": false,
          "internalType": "string",
          "name": "value",
          "type": "string"
        },
        {
          "indexed": true,
          "internalType": "uint256",
          "name": "id",
          "type": "uint256"
        }
      ],
      "name": "URI",
      "type": "event"
    },
    {
      "inputs": [
        {
          "internalType": "address",
          "name": "account",
          "type": "address"
        },
        {
          "internalType": "uint256",
          "name": "id",
          "type": "uint256"
        }
      ],
      "name": "balanceOf",
      "outputs": [
        {
          "internalType": "uint256",
          "name": "",
          "type": "uint256"
        }
      ],
      "stateMutability": "view",
      "type": "function",
      "constant": true
    },
    {
      "inputs": [
        {
          "internalType": "address[]",
          "name": "accounts",
          "type": "address[]"
        },
        {
          "internalType": "uint256[]",
          "name": "ids",
          "type": "uint256[]"
        }
      ],
      "name": "balanceOfBatch",
      "outputs": [
        {
          "internalType": "uint256[]",
          "name": "",
          "type": "uint256[]"
        }
      ],
      "stateMutability": "view",
      "type": "function",
      "constant": true
    },
    {
      "inputs": [
        {
          "internalType": "address",
          "name": "account",
          "type": "address"
        },
        {
          "internalType": "address",
          "name": "operator",
          "type": "address"
        }
      ],
      "name": "isApprovedForAll",
      "outputs": [
        {
          "internalType": "bool",
          "name": "",
          "type": "bool"
        }
      ],
      "stateMutability": "view",
      "type": "function",
      "constant": true
    },
    {
      "inputs": [
        {
          "internalType": "address",
          "name": "from",
          "type": "address"
        },
        {
          "internalType": "address",
          "name": "to",
          "type": "address"
        },
        {
          "internalType": "uint256[]",
          "name": "ids",
          "type": "uint256[]"
        },
        {
          "internalType": "uint256[]",
          "name": "values",
          "type": "uint256[]"
        },
        {
          "internalType": "bytes",
          "name": "data",
          "type": "bytes"
        }
      ],
      "name": "safeBatchTransferFrom",
      "outputs": [],
      "stateMutability": "nonpayable",
      "type": "function"
    },
    {
      "inputs": [
        {
          "internalType": "address",
          "name": "from",
          "type": "address"
        },
        {
          "internalType": "address",
          "name": "to",
          "type": "address"
        },
        {
          "internalType": "uint256",
          "name": "id",
          "type": "uint256"
        },
        {
          "internalType": "uint256",
          "name": "value",
          "type": "uint256"
        },
        {
          "internalType": "bytes",
          "name": "data",
          "type": "bytes"
        }
      ],
      "name": "safeTransferFrom",
      "outputs": [],
      "stateMutability": "nonpayable",
      "type": "function"
    },
    {
      "inputs": [
        {
          "internalType": "address",
          "name": "operator",
          "type": "address"
        },
        {
          "internalType": "bool",
          "name": "approved",
          "type": "bool"
        }
      ],
      "name": "setApprovalForAll",
      "outputs": [],
      "stateMutability": "nonpayable",
      "type": "function"
    },
    {
      "inputs": [
        {
          "internalType": "bytes4",
          "name": "interfaceId",
          "type": "bytes4"
        }
      ],
      "name": "supportsInterface",
      "outputs": [
        {
          "internalType": "bool",
          "name": "",
          "type": "bool"
        }
      ],
      "stateMutability": "view",
      "type": "function",
      "constant": true
    },
    {
      "inputs": [
        {
          "internalType": "uint256",
          "name": "",
          "type": "uint256"
        }
      ],
      "name": "uri",
      "outputs": [
        {
          "internalType": "string",
          "name": "",
          "type": "string"
        }
      ],
      "stateMutability": "view",
      "type": "function",
      "constant": true
    },
    {
      "inputs": [
        {
          "internalType": "uint256",
          "name": "tokenType",
          "type": "uint256"
        },
        {
          "internalType": "string",
          "name": "encryptedData",
          "type": "string"
        }
      ],
      "name": "mintToken",
      "outputs": [],
      "stateMutability": "nonpayable",
      "type": "function"
    },
    {
      "inputs": [
        {
          "internalType": "uint256",
          "name": "tokenId",
          "type": "uint256"
        },
        {
          "internalType": "string",
          "name": "newEncryptedData",
          "type": "string"
        }
      ],
      "name": "updateToken",
      "outputs": [],
      "stateMutability": "nonpayable",
      "type": "function"
    },
    {
      "inputs": [
        {
          "internalType": "address",
          "name": "consumer",
          "type": "address"
        },
        {
          "internalType": "uint256[]",
          "name": "tokenIds",
          "type": "uint256[]"
        }
      ],
      "name": "authorizeMultiple",
      "outputs": [],
      "stateMutability": "nonpayable",
      "type": "function"
    },
    {
      "inputs": [
        {
          "internalType": "address",
          "name": "consumer",
          "type": "address"
        },
        {
          "internalType": "uint256[]",
          "name": "tokenIds",
          "type": "uint256[]"
        }
      ],
      "name": "revokeMultiple",
      "outputs": [],
      "stateMutability": "nonpayable",
      "type": "function"
    },
    {
      "inputs": [
        {
          "internalType": "address",
          "name": "provider",
          "type": "address"
        }
      ],
      "name": "getTokensFromProvider",
      "outputs": [
        {
          "internalType": "uint256[]",
          "name": "",
          "type": "uint256[]"
        }
      ],
      "stateMutability": "view",
      "type": "function",
      "constant": true
    },
    {
      "inputs": [],
      "name": "getMyTokens",
      "outputs": [
        {
          "internalType": "uint256[]",
          "name": "",
          "type": "uint256[]"
        }
      ],
      "stateMutability": "view",
      "type": "function",
      "constant": true
    },
    {
      "inputs": [
        {
          "internalType": "uint256",
          "name": "tokenType",
          "type": "uint256"
        }
      ],
      "name": "getTokensByType",
      "outputs": [
        {
          "internalType": "uint256[]",
          "name": "",
          "type": "uint256[]"
        }
      ],
      "stateMutability": "view",
      "type": "function",
      "constant": true
    },
    {
      "inputs": [
        {
          "internalType": "uint256",
          "name": "tokenId",
          "type": "uint256"
        }
      ],
      "name": "getTokenData",
      "outputs": [
        {
          "components": [
            {
              "internalType": "string",
              "name": "encryptedData",
              "type": "string"
            },
            {
              "internalType": "bool",
              "name": "isCurrent",
              "type": "bool"
            },
            {
              "internalType": "uint256",
              "name": "createdAt",
              "type": "uint256"
            },
            {
              "internalType": "uint256",
              "name": "updatedAt",
              "type": "uint256"
            }
          ],
          "internalType": "struct IdentityManagement.TokenData",
          "name": "",
          "type": "tuple"
        }
      ],
      "stateMutability": "view",
      "type": "function",
      "constant": true
    }
  ],
  "bytecode": "0x608060405234801562000010575f80fd5b5060408051602081019091525f81526200002a8162000031565b50620001ab565b60026200003f8282620000e3565b5050565b634e487b7160e01b5f52604160045260245ffd5b600181811c908216806200006c57607f821691505b6020821081036200008b57634e487b7160e01b5f52602260045260245ffd5b50919050565b601f821115620000de575f81815260208120601f850160051c81016020861015620000b95750805b601f850160051c820191505b81811015620000da57828155600101620000c5565b5050505b505050565b81516001600160401b03811115620000ff57620000ff62000043565b620001178162000110845462000057565b8462000091565b602080601f8311600181146200014d575f8415620001355750858301515b5f19600386901b1c1916600185901b178555620000da565b5f85815260208120601f198616915b828110156200017d578886015182559484019460019091019084016200015c565b50858210156200019b57878501515f19600388901b60f8161c191681555b5050505050600190811b01905550565b61204b80620001b95f395ff3fe608060405234801561000f575f80fd5b50600436106100fa575f3560e01c80636151e62e11610093578063a22cb46511610063578063a22cb46514610216578063b09afec114610229578063e985e9c514610249578063f242432a1461025c575f80fd5b80636151e62e146101ca5780637427dac4146101dd578063752312a9146101f05780639956ab0514610203575f80fd5b80634e1273f4116100ce5780634e1273f41461017c57806358363ee11461019c57806358d3d333146101af5780635b3b136a146101c2575f80fd5b8062fdd58e146100fe57806301ffc9a7146101245780630e89341c146101475780632eb2c2d614610167575b5f80fd5b61011161010c3660046116c0565b61026f565b6040519081526020015b60405180910390f35b610137610132366004611700565b610296565b604051901515815260200161011b565b61015a610155366004611722565b6102e5565b60405161011b9190611786565b61017a6101753660046118db565b610377565b005b61018f61018a36600461197e565b6103e3565b60405161011b9190611a71565b61017a6101aa366004611a83565b6104b6565b61018f6101bd366004611ac4565b6105ff565b61018f61066f565b61018f6101d8366004611722565b6106cd565b61017a6101eb366004611a83565b610733565b61017a6101fe366004611add565b61085d565b61017a610211366004611add565b6109bb565b61017a610224366004611b2a565b610b91565b61023c610237366004611722565b610ba0565b60405161011b9190611b63565b610137610257366004611baa565b610d32565b61017a61026a366004611bdb565b610d5f565b5f818152602081815260408083206001600160a01b03861684529091529020545b92915050565b5f6001600160e01b03198216636cdb3d1360e11b14806102c657506001600160e01b031982166303a24d0760e21b145b8061029057506301ffc9a760e01b6001600160e01b0319831614610290565b6060600280546102f490611c3b565b80601f016020809104026020016040519081016040528092919081815260200182805461032090611c3b565b801561036b5780601f106103425761010080835404028352916020019161036b565b820191905f5260205f20905b81548152906001019060200180831161034e57829003601f168201915b50505050509050919050565b336001600160a01b038616811480159061039857506103968682610d32565b155b156103ce5760405163711bec9160e11b81526001600160a01b038083166004830152871660248201526044015b60405180910390fd5b6103db8686868686610dbe565b505050505050565b606081518351146104145781518351604051635b05999160e01b8152600481019290925260248201526044016103c5565b5f835167ffffffffffffffff81111561042f5761042f611798565b604051908082528060200260200182016040528015610458578160200160208202803683370190505b5090505f5b84518110156104ae576020808202860101516104819060208084028701015161026f565b82828151811061049357610493611c73565b60209081029190910101526104a781611c9b565b905061045d565b509392505050565b5f5b81518110156105fa575f8282815181106104d4576104d4611c73565b602090810291909101810151335f9081526007835260408082206001600160a01b03891683528452808220838352909352919091205490915060ff1661052c5760405162461bcd60e51b81526004016103c590611cb3565b335f8181526007602090815260408083206001600160a01b0389168085529083528184208685528352818420805460ff19169055938352600882528083209383529290522061057b9082610e23565b6001600160a01b0384165f90815260096020908152604080832033845290915290206105a79082610e23565b6040518181526001600160a01b0385169033907fd1662978c81e15f621e7a38524048493c6e86d91a24a29619d164bef0a8d0a989060200160405180910390a350806105f281611c9b565b9150506104b8565b505050565b335f9081526009602090815260408083206001600160a01b038516845282529182902080548351818402810184019094528084526060939283018282801561036b57602002820191905f5260205f20905b8154815260200190600101908083116106505750505050509050919050565b335f908152600560209081526040918290208054835181840281018401909452808452606093928301828280156106c357602002820191905f5260205f20905b8154815260200190600101908083116106af575b5050505050905090565b335f90815260066020908152604080832084845282529182902080548351818402810184019094528084526060939283018282801561036b57602002820191905f5260205f20908154815260200190600101908083116106505750505050509050919050565b5f5b81518110156105fa575f82828151811061075157610751611c73565b6020908102919091018101515f81815260049092526040909120549091506001600160a01b031633146107965760405162461bcd60e51b81526004016103c590611cb3565b335f8181526007602090815260408083206001600160a01b0389168085529083528184208685528352818420805460ff19166001908117909155858552600884528285208286528452828520805480830182559086528486200187905581855260098452828520868652845282852080549182018155855293839020909301859055518481529192917fc061fcf24d24fd46b4e00a4c037abf86a78217b49fe056bae0c506589c3b51a5910160405180910390a3508061085581611c9b565b915050610735565b5f6108688333610ed0565b90505f8160405160200161087c9190611cda565b60408051601f1981840301815282825280516020918201205f81815260038352838120608086018552888652600186850181905242958701869052606087019590955280549485018155815291909120835191945060049092029091019081906108e69082611d3a565b506020828101516001838101805460ff19169215159290921790915560408085015160028501556060909401516003909301929092555f848152600482528381208054336001600160a01b0319909116811790915580825260058352848220805480860182559083528383200186905580825260068352848220898352835284822080549485018155825291902090910183905590517fd306967beeb39489cb6724748118d29c59bd0f0e17a5dd711b4f4d3dea3a1c47906109ad90849086908990611df6565b60405180910390a250505050565b5f828152600460205260409020546001600160a01b031633146109f05760405162461bcd60e51b81526004016103c590611cb3565b5f8281526003602052604090205480610a575760405162461bcd60e51b8152602060048201526024808201527f4e6f2076657273696f6e7320617661696c61626c6520666f722074686973207460448201526337b5b2b760e11b60648201526084016103c5565b5f838152600360205260408120610a6f600184611e1e565b81548110610a7f57610a7f611c73565b5f918252602080832060016004909302018201805494151560ff19909516949094179093558582526003808452604080842081516080810183528881528087019490945288855291909452805490939192918301918491610ae257610ae2611c73565b5f9182526020808320600492830201600201548452429381019390935284546001810186559482529190208251929390910201908190610b229082611d3a565b50602082015160018201805460ff191691151591909117905560408083015160028301556060909201516003909101555133907f24e9daeed90f46fa869a0ac39038a91d5ee4fc15061248fe1a0c61db84c4138e90610b849086908690611e31565b60405180910390a2505050565b610b9c338383610f58565b5050565b610bca6040518060800160405280606081526020015f151581526020015f81526020015f81525090565b5f828152600460205260409020546001600160a01b031633811480610c1957506001600160a01b0381165f908152600760209081526040808320338452825280832086845290915290205460ff165b610c355760405162461bcd60e51b81526004016103c590611cb3565b5f838152600360205260409020805490610c50600183611e1e565b81548110610c6057610c60611c73565b905f5260205f2090600402016040518060800160405290815f82018054610c8690611c3b565b80601f0160208091040260200160405190810160405280929190818152602001828054610cb290611c3b565b8015610cfd5780601f10610cd457610100808354040283529160200191610cfd565b820191905f5260205f20905b815481529060010190602001808311610ce057829003601f168201915b5050509183525050600182015460ff161515602082015260028201546040820152600390910154606090910152949350505050565b6001600160a01b039182165f90815260016020908152604080832093909416825291909152205460ff1690565b336001600160a01b0386168114801590610d805750610d7e8682610d32565b155b15610db15760405163711bec9160e11b81526001600160a01b038083166004830152871660248201526044016103c5565b6103db8686868686610fec565b6001600160a01b038416610de757604051632bfa23e760e11b81525f60048201526024016103c5565b6001600160a01b038516610e0f57604051626a0d4560e21b81525f60048201526024016103c5565b610e1c8585858585611078565b5050505050565b5f5b82548110156105fa5781838281548110610e4157610e41611c73565b905f5260205f20015403610ebe5782548390610e5f90600190611e1e565b81548110610e6f57610e6f611c73565b905f5260205f200154838281548110610e8a57610e8a611c73565b905f5260205f20018190555082805480610ea657610ea6611e51565b600190038181905f5260205f20015f90559055505050565b80610ec881611c9b565b915050610e25565b60605f610edc846110cb565b6040516bffffffffffffffffffffffff19606086901b1660208201524260348201524460548201529091505f9060740160405160208183030381529060405280519060200120905081610f2e82611165565b604051602001610f3f929190611e65565b6040516020818303038152906040529250505092915050565b6001600160a01b038216610f805760405162ced3e160e81b81525f60048201526024016103c5565b6001600160a01b038381165f81815260016020908152604080832094871680845294825291829020805460ff191686151590811790915591519182527f17307eab39ab6107e8899845ad3d59bd9653f200f220920489ca2b5937696c31910160405180910390a3505050565b6001600160a01b03841661101557604051632bfa23e760e11b81525f60048201526024016103c5565b6001600160a01b03851661103d57604051626a0d4560e21b81525f60048201526024016103c5565b6040805160018082526020820186905281830190815260608201859052608082019092529061106f8787848487611078565b50505050505050565b61108485858585611252565b6001600160a01b03841615610e1c57825133906001036110bd57602084810151908401516110b683898985858961146a565b50506103db565b6103db81878787878761158b565b6060816001036110f55750506040805180820190915260048152634345445560e01b602082015290565b8160020361111d5750506040805180820190915260048152634c49434560e01b602082015290565b816003036111455750506040805180820190915260048152630504153560e41b602082015290565b505060408051808201909152600481526323a2a72960e11b602082015290565b6040805181815260608181018352915f91906020820181803683370190505090505f5b602081101561124b575f8482602081106111a4576111a4611c73565b1a90506111ba6111b5601083611ea7565b611672565b836111c6846002611ec8565b815181106111d6576111d6611c73565b60200101906001600160f81b03191690815f1a9053506111fa6111b5601083611edf565b83611206846002611ec8565b611211906001611f00565b8151811061122157611221611c73565b60200101906001600160f81b03191690815f1a90535050808061124390611c9b565b915050611188565b5092915050565b80518251146112815781518151604051635b05999160e01b8152600481019290925260248201526044016103c5565b335f5b835181101561138c576020818102858101820151908501909101516001600160a01b03881615611335575f828152602081815260408083206001600160a01b038c1684529091529020548181101561130f576040516303dee4c560e01b81526001600160a01b038a1660048201526024810182905260448101839052606481018490526084016103c5565b5f838152602081815260408083206001600160a01b038d16845290915290209082900390555b6001600160a01b03871615611379575f828152602081815260408083206001600160a01b038b16845290915281208054839290611373908490611f00565b90915550505b50508061138590611c9b565b9050611284565b50825160010361140c5760208301515f906020840151909150856001600160a01b0316876001600160a01b0316846001600160a01b03167fc3d58168c5ae7397731d063d5bbf3d657854427343f4c083240f7aacaa2d0f6285856040516113fd929190918252602082015260400190565b60405180910390a45050610e1c565b836001600160a01b0316856001600160a01b0316826001600160a01b03167f4a39dc06d4c0dbc64b70af90fd698a233a518aa5d07e595d983b8c0526c8f7fb868660405161145b929190611f13565b60405180910390a45050505050565b6001600160a01b0384163b156103db5760405163f23a6e6160e01b81526001600160a01b0385169063f23a6e61906114ae9089908990889088908890600401611f40565b6020604051808303815f875af19250505080156114e8575060408051601f3d908101601f191682019092526114e591810190611f84565b60015b61154f573d808015611515576040519150601f19603f3d011682016040523d82523d5f602084013e61151a565b606091505b5080515f0361154757604051632bfa23e760e11b81526001600160a01b03861660048201526024016103c5565b805181602001fd5b6001600160e01b0319811663f23a6e6160e01b1461106f57604051632bfa23e760e11b81526001600160a01b03861660048201526024016103c5565b6001600160a01b0384163b156103db5760405163bc197c8160e01b81526001600160a01b0385169063bc197c81906115cf9089908990889088908890600401611f9f565b6020604051808303815f875af1925050508015611609575060408051601f3d908101601f1916820190925261160691810190611f84565b60015b611636573d808015611515576040519150601f19603f3d011682016040523d82523d5f602084013e61151a565b6001600160e01b0319811663bc197c8160e01b1461106f57604051632bfa23e760e11b81526001600160a01b03861660048201526024016103c5565b5f600a8260ff161061169157611689826057611ffc565b60f81b610290565b61169c826030611ffc565b60f81b92915050565b80356001600160a01b03811681146116bb575f80fd5b919050565b5f80604083850312156116d1575f80fd5b6116da836116a5565b946020939093013593505050565b6001600160e01b0319811681146116fd575f80fd5b50565b5f60208284031215611710575f80fd5b813561171b816116e8565b9392505050565b5f60208284031215611732575f80fd5b5035919050565b5f5b8381101561175357818101518382015260200161173b565b50505f910152565b5f8151808452611772816020860160208601611739565b601f01601f19169290920160200192915050565b602081525f61171b602083018461175b565b634e487b7160e01b5f52604160045260245ffd5b604051601f8201601f1916810167ffffffffffffffff811182821017156117d5576117d5611798565b604052919050565b5f67ffffffffffffffff8211156117f6576117f6611798565b5060051b60200190565b5f82601f83011261180f575f80fd5b8135602061182461181f836117dd565b6117ac565b82815260059290921b84018101918181019086841115611842575f80fd5b8286015b8481101561185d5780358352918301918301611846565b509695505050505050565b5f67ffffffffffffffff83111561188157611881611798565b611894601f8401601f19166020016117ac565b90508281528383830111156118a7575f80fd5b828260208301375f602084830101529392505050565b5f82601f8301126118cc575f80fd5b61171b83833560208501611868565b5f805f805f60a086880312156118ef575f80fd5b6118f8866116a5565b9450611906602087016116a5565b9350604086013567ffffffffffffffff80821115611922575f80fd5b61192e89838a01611800565b94506060880135915080821115611943575f80fd5b61194f89838a01611800565b93506080880135915080821115611964575f80fd5b50611971888289016118bd565b9150509295509295909350565b5f806040838503121561198f575f80fd5b823567ffffffffffffffff808211156119a6575f80fd5b818501915085601f8301126119b9575f80fd5b813560206119c961181f836117dd565b82815260059290921b840181019181810190898411156119e7575f80fd5b948201945b83861015611a0c576119fd866116a5565b825294820194908201906119ec565b96505086013592505080821115611a21575f80fd5b50611a2e85828601611800565b9150509250929050565b5f8151808452602080850194508084015f5b83811015611a6657815187529582019590820190600101611a4a565b509495945050505050565b602081525f61171b6020830184611a38565b5f8060408385031215611a94575f80fd5b611a9d836116a5565b9150602083013567ffffffffffffffff811115611ab8575f80fd5b611a2e85828601611800565b5f60208284031215611ad4575f80fd5b61171b826116a5565b5f8060408385031215611aee575f80fd5b82359150602083013567ffffffffffffffff811115611b0b575f80fd5b8301601f81018513611b1b575f80fd5b611a2e85823560208401611868565b5f8060408385031215611b3b575f80fd5b611b44836116a5565b915060208301358015158114611b58575f80fd5b809150509250929050565b602081525f825160806020840152611b7e60a084018261175b565b905060208401511515604084015260408401516060840152606084015160808401528091505092915050565b5f8060408385031215611bbb575f80fd5b611bc4836116a5565b9150611bd2602084016116a5565b90509250929050565b5f805f805f60a08688031215611bef575f80fd5b611bf8866116a5565b9450611c06602087016116a5565b93506040860135925060608601359150608086013567ffffffffffffffff811115611c2f575f80fd5b611971888289016118bd565b600181811c90821680611c4f57607f821691505b602082108103611c6d57634e487b7160e01b5f52602260045260245ffd5b50919050565b634e487b7160e01b5f52603260045260245ffd5b634e487b7160e01b5f52601160045260245ffd5b5f60018201611cac57611cac611c87565b5060010190565b6020808252600d908201526c4e6f206175746f72697a61646f60981b604082015260600190565b5f8251611ceb818460208701611739565b9190910192915050565b601f8211156105fa575f81815260208120601f850160051c81016020861015611d1b5750805b601f850160051c820191505b818110156103db57828155600101611d27565b815167ffffffffffffffff811115611d5457611d54611798565b611d6881611d628454611c3b565b84611cf5565b602080601f831160018114611d9b575f8415611d845750858301515b5f19600386901b1c1916600185901b1785556103db565b5f85815260208120601f198616915b82811015611dc957888601518255948401946001909101908401611daa565b5085821015611de657878501515f19600388901b60f8161c191681555b5050505050600190811b01905550565b838152606060208201525f611e0e606083018561175b565b9050826040830152949350505050565b8181038181111561029057610290611c87565b828152604060208201525f611e49604083018461175b565b949350505050565b634e487b7160e01b5f52603160045260245ffd5b5f8351611e76818460208801611739565b835190830190611e8a818360208801611739565b01949350505050565b634e487b7160e01b5f52601260045260245ffd5b5f60ff831680611eb957611eb9611e93565b8060ff84160491505092915050565b808202811582820484141761029057610290611c87565b5f60ff831680611ef157611ef1611e93565b8060ff84160691505092915050565b8082018082111561029057610290611c87565b604081525f611f256040830185611a38565b8281036020840152611f378185611a38565b95945050505050565b6001600160a01b03868116825285166020820152604081018490526060810183905260a0608082018190525f90611f799083018461175b565b979650505050505050565b5f60208284031215611f94575f80fd5b815161171b816116e8565b6001600160a01b0386811682528516602082015260a0604082018190525f90611fca90830186611a38565b8281036060840152611fdc8186611a38565b90508281036080840152611ff0818561175b565b98975050505050505050565b60ff818116838216019081111561029057610290611c8756fea264697066735822122050f022343a4d86691fb0a97d09524486af2cc167840bb6d93a9089ffc5532b1964736f6c63430008140033",
  "immutableReferences": {},
  "source": "// SPDX-License-Identifier: MIT\r\npragma solidity ^0.8.20;\r\n\r\nimport \"@openzeppelin/contracts/token/ERC1155/ERC1155.sol\";\r\n\r\ncontract IdentityManagement is ERC1155 {\r\n    struct TokenData {\r\n        string encryptedData; // Datos cifrados del token\r\n        bool isCurrent;       // Indica si es la versin vigente\r\n        uint256 createdAt;    // Fecha de creacin (timestamp)\r\n        uint256 updatedAt;    // Fecha de ltima actualizacin (timestamp)\r\n    }\r\n\r\n    mapping(uint256 => TokenData[]) private tokenVersions; // tokenId -> versiones de datos\r\n    mapping(uint256 => address) private tokenProviders;   // tokenId -> proveedor\r\n    mapping(address => uint256[]) private providerTokens; // proveedor -> lista de tokenId\r\n    mapping(address => mapping(uint256 => uint256[])) private providerTokensByType; // proveedor -> tipo -> lista de tokenId\r\n    mapping(address => mapping(address => mapping(uint256 => bool))) private authorizations; // proveedor -> consumidor -> tokenId -> autorizado\r\n    mapping(address => mapping(address => uint256[])) private consumerAccess; // proveedor -> consumidor -> lista de tokenId\r\n    mapping(address => mapping(address => uint256[])) private reverseAccess; // consumidor -> proveedor -> lista de tokenId\r\n\r\n    event TokenCreated(uint256 tokenId, string uniqueId, uint256 tokenType, address indexed provider);\r\n    event TokenUpdated(uint256 tokenId, address indexed provider, string newData);\r\n    event AuthorizationGranted(address indexed provider, address indexed consumer, uint256 tokenId);\r\n    event AuthorizationRevoked(address indexed provider, address indexed consumer, uint256 tokenId);\r\n\r\n    constructor() ERC1155(\"\") {}\r\n\r\n    // Crear un nuevo token\r\n    function mintToken(uint256 tokenType, string memory encryptedData) public {\r\n        string memory uniqueId = generateUniqueId(tokenType, msg.sender);\r\n        uint256 tokenId = uint256(keccak256(abi.encodePacked(uniqueId))); // Convertir uniqueId a uint256\r\n\r\n        tokenVersions[tokenId].push(TokenData(encryptedData, true, block.timestamp, block.timestamp));\r\n        tokenProviders[tokenId] = msg.sender;\r\n        providerTokens[msg.sender].push(tokenId);\r\n        providerTokensByType[msg.sender][tokenType].push(tokenId);\r\n\r\n        emit TokenCreated(tokenId, uniqueId, tokenType, msg.sender); // Incluimos uniqueId en el evento\r\n    }\r\n\r\n    // Actualizar un token existente\r\n    function updateToken(uint256 tokenId, string memory newEncryptedData) public {\r\n        require(tokenProviders[tokenId] == msg.sender, \"No autorizado\");\r\n\r\n        uint256 versionCount = tokenVersions[tokenId].length;\r\n        require(versionCount > 0, \"No versions available for this token\");\r\n        tokenVersions[tokenId][versionCount - 1].isCurrent = false;\r\n\r\n        tokenVersions[tokenId].push(TokenData(newEncryptedData, true, tokenVersions[tokenId][0].createdAt, block.timestamp));\r\n\r\n        emit TokenUpdated(tokenId, msg.sender, newEncryptedData);\r\n    }\r\n\r\n    // Autorizar mltiples tokens\r\n    function authorizeMultiple(address consumer, uint256[] memory tokenIds) public {\r\n        for (uint256 i = 0; i < tokenIds.length; i++) {\r\n            uint256 tokenId = tokenIds[i];\r\n            require(tokenProviders[tokenId] == msg.sender, \"No autorizado\");\r\n            authorizations[msg.sender][consumer][tokenId] = true;\r\n            consumerAccess[msg.sender][consumer].push(tokenId);\r\n            reverseAccess[consumer][msg.sender].push(tokenId);\r\n\r\n            emit AuthorizationGranted(msg.sender, consumer, tokenId);\r\n        }\r\n    }\r\n\r\n    // Revocar mltiples autorizaciones\r\n    function revokeMultiple(address consumer, uint256[] memory tokenIds) public {\r\n        for (uint256 i = 0; i < tokenIds.length; i++) {\r\n            uint256 tokenId = tokenIds[i];\r\n            require(authorizations[msg.sender][consumer][tokenId], \"No autorizado\");\r\n            authorizations[msg.sender][consumer][tokenId] = false;\r\n\r\n            // Eliminar de consumerAccess\r\n            _removeToken(consumerAccess[msg.sender][consumer], tokenId);\r\n            _removeToken(reverseAccess[consumer][msg.sender], tokenId);\r\n\r\n            emit AuthorizationRevoked(msg.sender, consumer, tokenId);\r\n        }\r\n    }\r\n\r\n    // Obtener tokens autorizados por algun proveedor\r\n    function getTokensFromProvider(address provider) public view returns (uint256[] memory) {\r\n        return reverseAccess[msg.sender][provider];\r\n    }\r\n\r\n    // Obtener mis tokens\r\n    function getMyTokens() public view returns (uint256[] memory) {\r\n        return providerTokens[msg.sender];\r\n    }\r\n\r\n    // Obtener tokens por tipo\r\n    function getTokensByType(uint256 tokenType) public view returns (uint256[] memory) {\r\n        return providerTokensByType[msg.sender][tokenType];\r\n    }\r\n\r\n    // Obtener datos del token (verifica autorizacin)\r\n    function getTokenData(uint256 tokenId) public view returns (TokenData memory) {\r\n        address provider = tokenProviders[tokenId];\r\n        require(provider == msg.sender || authorizations[provider][msg.sender][tokenId], \"No autorizado\");\r\n\r\n        uint256 versionCount = tokenVersions[tokenId].length;\r\n        return tokenVersions[tokenId][versionCount - 1];\r\n    }\r\n\r\n    // Generar ID nico\r\n    function generateUniqueId(uint256 tokenType, address provider) private view returns (string memory) {\r\n        string memory typePrefix = _getTypePrefix(tokenType);\r\n        bytes32 hashPart = keccak256(abi.encodePacked(provider, block.timestamp, block.prevrandao));\r\n        return string(abi.encodePacked(typePrefix, _toHex(hashPart)));\r\n    }\r\n\r\n    // Obtener prefijo de tipo\r\n    function _getTypePrefix(uint256 tokenType) private pure returns (string memory) {\r\n        if (tokenType == 1) return \"CEDU\"; // Cdula\r\n        if (tokenType == 2) return \"LICE\"; // Licencia\r\n        if (tokenType == 3) return \"PASP\"; // Pasaporte\r\n        return \"GENR\"; // General\r\n    }\r\n\r\n    // Convertir bytes32 a string hexadecimal\r\n    function _toHex(bytes32 data) private pure returns (string memory) {\r\n        bytes memory hexa = new bytes(64);\r\n        for (uint256 i = 0; i < 32; i++) {\r\n            uint8 byteValue = uint8(data[i]);\r\n            hexa[i * 2] = _hexChar(byteValue / 16);\r\n            hexa[i * 2 + 1] = _hexChar(byteValue % 16);\r\n        }\r\n        return string(hexa);\r\n    }\r\n\r\n    function _hexChar(uint8 value) private pure returns (bytes1) {\r\n        return value < 10 ? bytes1(value + 48) : bytes1(value + 87);\r\n    }\r\n\r\n    // Eliminar token de lista\r\n    function _removeToken(uint256[] storage list, uint256 tokenId) private {\r\n        for (uint256 i = 0; i < list.length; i++) {\r\n            if (list[i] == tokenId) {\r\n                list[i] = list[list.length - 1];\r\n                list.pop();\r\n                break;\r\n            }\r\n        }\r\n    }\r\n}\r\n",
  "sourcePath": "D:\\Projects\\identidad_digital\\identidad_frontend\\blockchain\\contracts\\IdentityManagement.sol",
  "compiler": {
    "name": "solc",
    "version": "0.8.20+commit.a1b79de6.Emscripten.clang"
  },
  "schemaVersion": "3.4.16",
  "updatedAt": "2024-11-23T18:59:03.659Z",
  "networkType": "ethereum",
  "devdoc": {
    "errors": {
      "ERC1155InsufficientBalance(address,uint256,uint256,uint256)": [
        {
          "details": "Indicates an error related to the current `balance` of a `sender`. Used in transfers.",
          "params": {
            "balance": "Current balance for the interacting account.",
            "needed": "Minimum amount required to perform a transfer.",
            "sender": "Address whose tokens are being transferred.",
            "tokenId": "Identifier number of a token."
          }
        }
      ],
      "ERC1155InvalidApprover(address)": [
        {
          "details": "Indicates a failure with the `approver` of a token to be approved. Used in approvals.",
          "params": {
            "approver": "Address initiating an approval operation."
          }
        }
      ],
      "ERC1155InvalidArrayLength(uint256,uint256)": [
        {
          "details": "Indicates an array length mismatch between ids and values in a safeBatchTransferFrom operation. Used in batch transfers.",
          "params": {
            "idsLength": "Length of the array of token identifiers",
            "valuesLength": "Length of the array of token amounts"
          }
        }
      ],
      "ERC1155InvalidOperator(address)": [
        {
          "details": "Indicates a failure with the `operator` to be approved. Used in approvals.",
          "params": {
            "operator": "Address that may be allowed to operate on tokens without being their owner."
          }
        }
      ],
      "ERC1155InvalidReceiver(address)": [
        {
          "details": "Indicates a failure with the token `receiver`. Used in transfers.",
          "params": {
            "receiver": "Address to which tokens are being transferred."
          }
        }
      ],
      "ERC1155InvalidSender(address)": [
        {
          "details": "Indicates a failure with the token `sender`. Used in transfers.",
          "params": {
            "sender": "Address whose tokens are being transferred."
          }
        }
      ],
      "ERC1155MissingApprovalForAll(address,address)": [
        {
          "details": "Indicates a failure with the `operator`s approval. Used in transfers.",
          "params": {
            "operator": "Address that may be allowed to operate on tokens without being their owner.",
            "owner": "Address of the current owner of a token."
          }
        }
      ]
    },
    "events": {
      "ApprovalForAll(address,address,bool)": {
        "details": "Emitted when `account` grants or revokes permission to `operator` to transfer their tokens, according to `approved`."
      },
      "TransferBatch(address,address,address,uint256[],uint256[])": {
        "details": "Equivalent to multiple {TransferSingle} events, where `operator`, `from` and `to` are the same for all transfers."
      },
      "TransferSingle(address,address,address,uint256,uint256)": {
        "details": "Emitted when `value` amount of tokens of type `id` are transferred from `from` to `to` by `operator`."
      },
      "URI(string,uint256)": {
        "details": "Emitted when the URI for token type `id` changes to `value`, if it is a non-programmatic URI. If an {URI} event was emitted for `id`, the standard https://eips.ethereum.org/EIPS/eip-1155#metadata-extensions[guarantees] that `value` will equal the value returned by {IERC1155MetadataURI-uri}."
      }
    },
    "kind": "dev",
    "methods": {
      "balanceOf(address,uint256)": {
        "details": "See {IERC1155-balanceOf}."
      },
      "balanceOfBatch(address[],uint256[])": {
        "details": "See {IERC1155-balanceOfBatch}. Requirements: - `accounts` and `ids` must have the same length."
      },
      "isApprovedForAll(address,address)": {
        "details": "See {IERC1155-isApprovedForAll}."
      },
      "safeBatchTransferFrom(address,address,uint256[],uint256[],bytes)": {
        "details": "See {IERC1155-safeBatchTransferFrom}."
      },
      "safeTransferFrom(address,address,uint256,uint256,bytes)": {
        "details": "See {IERC1155-safeTransferFrom}."
      },
      "setApprovalForAll(address,bool)": {
        "details": "See {IERC1155-setApprovalForAll}."
      },
      "supportsInterface(bytes4)": {
        "details": "See {IERC165-supportsInterface}."
      },
      "uri(uint256)": {
        "details": "See {IERC1155MetadataURI-uri}. This implementation returns the same URI for *all* token types. It relies on the token type ID substitution mechanism https://eips.ethereum.org/EIPS/eip-1155#metadata[defined in the ERC]. Clients calling this function must replace the `\\{id\\}` substring with the actual token type ID."
      }
    },
    "version": 1
  },
  "userdoc": {
    "kind": "user",
    "methods": {},
    "version": 1
  }
}