{
  "contractName": "IdentityManagement",
  "abi": [
    {
      "anonymous": false,
      "inputs": [
        {
          "indexed": true,
          "internalType": "address",
          "name": "provider",
          "type": "address"
        },
        {
          "indexed": true,
          "internalType": "address",
          "name": "consumer",
          "type": "address"
        }
      ],
      "name": "AuthorizationGranted",
      "type": "event"
    },
    {
      "anonymous": false,
      "inputs": [
        {
          "indexed": true,
          "internalType": "address",
          "name": "provider",
          "type": "address"
        },
        {
          "indexed": true,
          "internalType": "address",
          "name": "consumer",
          "type": "address"
        }
      ],
      "name": "AuthorizationRevoked",
      "type": "event"
    },
    {
      "anonymous": false,
      "inputs": [
        {
          "indexed": true,
          "internalType": "address",
          "name": "provider",
          "type": "address"
        },
        {
          "indexed": false,
          "internalType": "string",
          "name": "docType",
          "type": "string"
        },
        {
          "indexed": false,
          "internalType": "string",
          "name": "docHash",
          "type": "string"
        }
      ],
      "name": "DocumentRegistered",
      "type": "event"
    },
    {
      "inputs": [
        {
          "internalType": "string",
          "name": "docType",
          "type": "string"
        },
        {
          "internalType": "string",
          "name": "docHash",
          "type": "string"
        }
      ],
      "name": "registerProvider",
      "outputs": [],
      "stateMutability": "nonpayable",
      "type": "function"
    },
    {
      "inputs": [
        {
          "internalType": "address",
          "name": "consumer",
          "type": "address"
        }
      ],
      "name": "authorizeConsumer",
      "outputs": [],
      "stateMutability": "nonpayable",
      "type": "function"
    },
    {
      "inputs": [
        {
          "internalType": "address",
          "name": "consumer",
          "type": "address"
        }
      ],
      "name": "revokeAuthorization",
      "outputs": [],
      "stateMutability": "nonpayable",
      "type": "function"
    },
    {
      "inputs": [],
      "name": "getMyDocuments",
      "outputs": [
        {
          "components": [
            {
              "internalType": "string",
              "name": "docType",
              "type": "string"
            },
            {
              "internalType": "string",
              "name": "docHash",
              "type": "string"
            }
          ],
          "internalType": "struct IdentityManagement.Document[]",
          "name": "",
          "type": "tuple[]"
        }
      ],
      "stateMutability": "view",
      "type": "function",
      "constant": true
    },
    {
      "inputs": [
        {
          "internalType": "address",
          "name": "provider",
          "type": "address"
        }
      ],
      "name": "getDocuments",
      "outputs": [
        {
          "components": [
            {
              "internalType": "string",
              "name": "docType",
              "type": "string"
            },
            {
              "internalType": "string",
              "name": "docHash",
              "type": "string"
            }
          ],
          "internalType": "struct IdentityManagement.Document[]",
          "name": "",
          "type": "tuple[]"
        }
      ],
      "stateMutability": "view",
      "type": "function",
      "constant": true
    },
    {
      "inputs": [],
      "name": "getAuthorizedConsumers",
      "outputs": [
        {
          "internalType": "address[]",
          "name": "",
          "type": "address[]"
        }
      ],
      "stateMutability": "view",
      "type": "function",
      "constant": true
    }
  ],
  "bytecode": "0x608060405234801561001057600080fd5b50610d27806100206000396000f3fe608060405234801561001057600080fd5b50600436106100625760003560e01c806327f50a2d146100675780633ea14cf81461009057806374ca8971146100a55780638cf391b0146100ba5780639111976e146100cd578063b48028e3146100d5575b600080fd5b61007a6100753660046109c1565b6100e8565b6040516100879190610a3e565b60405180910390f35b610098610315565b6040516100879190610ac3565b6100b86100b3366004610bb3565b610380565b005b6100b86100c83660046109c1565b61042f565b61007a61057e565b6100b86100e33660046109c1565b61070a565b6060336001600160a01b038316148061012457506001600160a01b038216600090815260016020908152604080832033845290915290205460ff165b6101835760405162461bcd60e51b815260206004820152602560248201527f4e6f206175746f72697a61646f207061726120766572206c6f7320646f63756d604482015264656e746f7360d81b60648201526084015b60405180910390fd5b6001600160a01b03821660009081526020818152604080832080548251818502810185019093528083529193909284015b8282101561030a57838290600052602060002090600202016040518060400160405290816000820180546101e790610c17565b80601f016020809104026020016040519081016040528092919081815260200182805461021390610c17565b80156102605780601f1061023557610100808354040283529160200191610260565b820191906000526020600020905b81548152906001019060200180831161024357829003601f168201915b5050505050815260200160018201805461027990610c17565b80601f01602080910402602001604051908101604052809291908181526020018280546102a590610c17565b80156102f25780601f106102c7576101008083540402835291602001916102f2565b820191906000526020600020905b8154815290600101906020018083116102d557829003601f168201915b505050505081525050815260200190600101906101b4565b505050509050919050565b3360009081526002602090815260409182902080548351818402810184019094528084526060939283018282801561037657602002820191906000526020600020905b81546001600160a01b03168152600190910190602001808311610358575b5050505050905090565b336000908152602081815260408083208151808301909252858252818301859052805460018101825590845292829020815180519294600202909101926103cc92849290910190610928565b5060208281015180516103e59260018501920190610928565b505050336001600160a01b03167fc336c37eb4f74d671217f209080e7eb26abf00a56d748cb23bc034ae63bd0ee98383604051610423929190610c51565b60405180910390a25050565b6001600160a01b03811633036104875760405162461bcd60e51b815260206004820181905260248201527f4e6f20707565646573206175746f72697a617274652061207469206d69736d6f604482015260640161017a565b3360009081526001602090815260408083206001600160a01b038516845290915290205460ff16156104fb5760405162461bcd60e51b815260206004820181905260248201527f456c20636f6e73756d69646f722079612065737461206175746f72697a61646f604482015260640161017a565b3360008181526001602081815260408084206001600160a01b038716808652908352818520805460ff1916851790558585526002835281852080549485018155855291842090920180546001600160a01b0319168217905590519092917f7221372411f0405c58b7b48e3951c448bb594dad75f79bf6aefa69af430d606291a350565b33600090815260208181526040808320805482518185028101850190935280835260609492939192909184015b8282101561070157838290600052602060002090600202016040518060400160405290816000820180546105de90610c17565b80601f016020809104026020016040519081016040528092919081815260200182805461060a90610c17565b80156106575780601f1061062c57610100808354040283529160200191610657565b820191906000526020600020905b81548152906001019060200180831161063a57829003601f168201915b5050505050815260200160018201805461067090610c17565b80601f016020809104026020016040519081016040528092919081815260200182805461069c90610c17565b80156106e95780601f106106be576101008083540402835291602001916106e9565b820191906000526020600020905b8154815290600101906020018083116106cc57829003601f168201915b505050505081525050815260200190600101906105ab565b50505050905090565b3360009081526001602090815260408083206001600160a01b038516845290915290205460ff1661077d5760405162461bcd60e51b815260206004820181905260248201527f456c20636f6e73756d69646f72206e6f2065737461206175746f72697a61646f604482015260640161017a565b3360009081526001602090815260408083206001600160a01b03851684529091528120805460ff191690555b336000908152600260205260409020548110156108ee5733600090815260026020526040902080546001600160a01b0384169190839081106107ed576107ed610c7f565b6000918252602090912001546001600160a01b0316036108dc57336000908152600260205260409020805461082490600190610cab565b8154811061083457610834610c7f565b60009182526020808320909101543383526002909152604090912080546001600160a01b03909216918390811061086d5761086d610c7f565b600091825260208083209190910180546001600160a01b0319166001600160a01b0394909416939093179092553381526002909152604090208054806108b5576108b5610cc2565b600082815260209020810160001990810180546001600160a01b03191690550190556108ee565b806108e681610cd8565b9150506107a9565b506040516001600160a01b0382169033907f203a04209f1ae06508132ac82e6ad3b28d9e9ba11f97cc9934b4d9e6a83dd24e90600090a350565b82805461093490610c17565b90600052602060002090601f016020900481019282610956576000855561099c565b82601f1061096f57805160ff191683800117855561099c565b8280016001018555821561099c579182015b8281111561099c578251825591602001919060010190610981565b506109a89291506109ac565b5090565b5b808211156109a857600081556001016109ad565b6000602082840312156109d357600080fd5b81356001600160a01b03811681146109ea57600080fd5b9392505050565b6000815180845260005b81811015610a17576020818501810151868301820152016109fb565b81811115610a29576000602083870101525b50601f01601f19169290920160200192915050565b60006020808301818452808551808352604092508286019150828160051b87010184880160005b83811015610ab557888303603f1901855281518051878552610a89888601826109f1565b91890151858303868b0152919050610aa181836109f1565b968901969450505090860190600101610a65565b509098975050505050505050565b6020808252825182820181905260009190848201906040850190845b81811015610b045783516001600160a01b031683529284019291840191600101610adf565b50909695505050505050565b634e487b7160e01b600052604160045260246000fd5b600082601f830112610b3757600080fd5b813567ffffffffffffffff80821115610b5257610b52610b10565b604051601f8301601f19908116603f01168101908282118183101715610b7a57610b7a610b10565b81604052838152866020858801011115610b9357600080fd5b836020870160208301376000602085830101528094505050505092915050565b60008060408385031215610bc657600080fd5b823567ffffffffffffffff80821115610bde57600080fd5b610bea86838701610b26565b93506020850135915080821115610c0057600080fd5b50610c0d85828601610b26565b9150509250929050565b600181811c90821680610c2b57607f821691505b602082108103610c4b57634e487b7160e01b600052602260045260246000fd5b50919050565b604081526000610c6460408301856109f1565b8281036020840152610c7681856109f1565b95945050505050565b634e487b7160e01b600052603260045260246000fd5b634e487b7160e01b600052601160045260246000fd5b600082821015610cbd57610cbd610c95565b500390565b634e487b7160e01b600052603160045260246000fd5b600060018201610cea57610cea610c95565b506001019056fea2646970667358221220831e3ebe21ddaa8ddf70c1807cdf2babf202d393e09f0c34586f4e8de87472ea64736f6c634300080d0033",
  "immutableReferences": {},
  "source": "// SPDX-License-Identifier: MIT\r\npragma solidity >=0.4.22 <0.9.0;\r\n\r\ncontract IdentityManagement {\r\n    struct Document {\r\n        string docType;\r\n        string docHash;\r\n    }\r\n\r\n    mapping(address => Document[]) private documents;\r\n    mapping(address => mapping(address => bool)) private authorizations;\r\n    mapping(address => address[]) private authorizedConsumers;\r\n\r\n    event DocumentRegistered(address indexed provider, string docType, string docHash);\r\n    event AuthorizationGranted(address indexed provider, address indexed consumer);\r\n    event AuthorizationRevoked(address indexed provider, address indexed consumer);\r\n\r\n    function registerProvider(string memory docType, string memory docHash) public {\r\n        documents[msg.sender].push(Document(docType, docHash));\r\n        emit DocumentRegistered(msg.sender, docType, docHash);\r\n    }\r\n\r\n    function authorizeConsumer(address consumer) public {\r\n        require(msg.sender != consumer, \"No puedes autorizarte a ti mismo\");\r\n        require(!authorizations[msg.sender][consumer], \"El consumidor ya esta autorizado\");\r\n        \r\n        authorizations[msg.sender][consumer] = true;\r\n        authorizedConsumers[msg.sender].push(consumer);\r\n        emit AuthorizationGranted(msg.sender, consumer);\r\n    }\r\n\r\n    function revokeAuthorization(address consumer) public {\r\n        require(authorizations[msg.sender][consumer], \"El consumidor no esta autorizado\");\r\n        \r\n        authorizations[msg.sender][consumer] = false;\r\n        \r\n        // Eliminar el consumidor de la lista de autorizados\r\n        for (uint i = 0; i < authorizedConsumers[msg.sender].length; i++) {\r\n            if (authorizedConsumers[msg.sender][i] == consumer) {\r\n                authorizedConsumers[msg.sender][i] = authorizedConsumers[msg.sender][authorizedConsumers[msg.sender].length - 1];\r\n                authorizedConsumers[msg.sender].pop();\r\n                break;\r\n            }\r\n        }\r\n        \r\n        emit AuthorizationRevoked(msg.sender, consumer);\r\n    }\r\n\r\n    function getMyDocuments() public view returns (Document[] memory) {\r\n        return documents[msg.sender];\r\n    }\r\n\r\n    function getDocuments(address provider) public view returns (Document[] memory) {\r\n        require(msg.sender == provider || authorizations[provider][msg.sender], \"No autorizado para ver los documentos\");\r\n        return documents[provider];\r\n    }\r\n\r\n    function getAuthorizedConsumers() public view returns (address[] memory) {\r\n        return authorizedConsumers[msg.sender];\r\n    }\r\n}\r\n",
  "sourcePath": "D:\\Projects\\identidad_digital\\identidad_frontend\\blockchain\\contracts\\IdentityManagement.sol",
  "compiler": {
    "name": "solc",
    "version": "0.8.13+commit.abaa5c0e.Emscripten.clang"
  },
  "schemaVersion": "3.4.16",
  "updatedAt": "2024-10-31T20:31:41.582Z",
  "networkType": "ethereum",
  "devdoc": {
    "kind": "dev",
    "methods": {},
    "version": 1
  },
  "userdoc": {
    "kind": "user",
    "methods": {},
    "version": 1
  }
}