{
  "contractName": "IdentityManagement",
  "abi": [
    {
      "inputs": [],
      "stateMutability": "nonpayable",
      "type": "constructor"
    },
    {
      "inputs": [
        {
          "internalType": "address",
          "name": "sender",
          "type": "address"
        },
        {
          "internalType": "uint256",
          "name": "balance",
          "type": "uint256"
        },
        {
          "internalType": "uint256",
          "name": "needed",
          "type": "uint256"
        },
        {
          "internalType": "uint256",
          "name": "tokenId",
          "type": "uint256"
        }
      ],
      "name": "ERC1155InsufficientBalance",
      "type": "error"
    },
    {
      "inputs": [
        {
          "internalType": "address",
          "name": "approver",
          "type": "address"
        }
      ],
      "name": "ERC1155InvalidApprover",
      "type": "error"
    },
    {
      "inputs": [
        {
          "internalType": "uint256",
          "name": "idsLength",
          "type": "uint256"
        },
        {
          "internalType": "uint256",
          "name": "valuesLength",
          "type": "uint256"
        }
      ],
      "name": "ERC1155InvalidArrayLength",
      "type": "error"
    },
    {
      "inputs": [
        {
          "internalType": "address",
          "name": "operator",
          "type": "address"
        }
      ],
      "name": "ERC1155InvalidOperator",
      "type": "error"
    },
    {
      "inputs": [
        {
          "internalType": "address",
          "name": "receiver",
          "type": "address"
        }
      ],
      "name": "ERC1155InvalidReceiver",
      "type": "error"
    },
    {
      "inputs": [
        {
          "internalType": "address",
          "name": "sender",
          "type": "address"
        }
      ],
      "name": "ERC1155InvalidSender",
      "type": "error"
    },
    {
      "inputs": [
        {
          "internalType": "address",
          "name": "operator",
          "type": "address"
        },
        {
          "internalType": "address",
          "name": "owner",
          "type": "address"
        }
      ],
      "name": "ERC1155MissingApprovalForAll",
      "type": "error"
    },
    {
      "anonymous": false,
      "inputs": [
        {
          "indexed": true,
          "internalType": "address",
          "name": "account",
          "type": "address"
        },
        {
          "indexed": true,
          "internalType": "address",
          "name": "operator",
          "type": "address"
        },
        {
          "indexed": false,
          "internalType": "bool",
          "name": "approved",
          "type": "bool"
        }
      ],
      "name": "ApprovalForAll",
      "type": "event"
    },
    {
      "anonymous": false,
      "inputs": [
        {
          "indexed": true,
          "internalType": "address",
          "name": "provider",
          "type": "address"
        },
        {
          "indexed": true,
          "internalType": "address",
          "name": "consumer",
          "type": "address"
        },
        {
          "indexed": false,
          "internalType": "uint256",
          "name": "tokenId",
          "type": "uint256"
        }
      ],
      "name": "AuthorizationGranted",
      "type": "event"
    },
    {
      "anonymous": false,
      "inputs": [
        {
          "indexed": true,
          "internalType": "address",
          "name": "provider",
          "type": "address"
        },
        {
          "indexed": true,
          "internalType": "address",
          "name": "consumer",
          "type": "address"
        },
        {
          "indexed": false,
          "internalType": "uint256",
          "name": "tokenId",
          "type": "uint256"
        }
      ],
      "name": "AuthorizationRevoked",
      "type": "event"
    },
    {
      "anonymous": false,
      "inputs": [
        {
          "indexed": false,
          "internalType": "uint256",
          "name": "tokenId",
          "type": "uint256"
        },
        {
          "indexed": false,
          "internalType": "string",
          "name": "uniqueId",
          "type": "string"
        },
        {
          "indexed": false,
          "internalType": "uint16",
          "name": "tokenType",
          "type": "uint16"
        },
        {
          "indexed": true,
          "internalType": "address",
          "name": "provider",
          "type": "address"
        }
      ],
      "name": "TokenCreated",
      "type": "event"
    },
    {
      "anonymous": false,
      "inputs": [
        {
          "indexed": false,
          "internalType": "uint256",
          "name": "tokenId",
          "type": "uint256"
        },
        {
          "indexed": true,
          "internalType": "address",
          "name": "provider",
          "type": "address"
        },
        {
          "indexed": false,
          "internalType": "string",
          "name": "newData",
          "type": "string"
        }
      ],
      "name": "TokenUpdated",
      "type": "event"
    },
    {
      "anonymous": false,
      "inputs": [
        {
          "indexed": true,
          "internalType": "address",
          "name": "operator",
          "type": "address"
        },
        {
          "indexed": true,
          "internalType": "address",
          "name": "from",
          "type": "address"
        },
        {
          "indexed": true,
          "internalType": "address",
          "name": "to",
          "type": "address"
        },
        {
          "indexed": false,
          "internalType": "uint256[]",
          "name": "ids",
          "type": "uint256[]"
        },
        {
          "indexed": false,
          "internalType": "uint256[]",
          "name": "values",
          "type": "uint256[]"
        }
      ],
      "name": "TransferBatch",
      "type": "event"
    },
    {
      "anonymous": false,
      "inputs": [
        {
          "indexed": true,
          "internalType": "address",
          "name": "operator",
          "type": "address"
        },
        {
          "indexed": true,
          "internalType": "address",
          "name": "from",
          "type": "address"
        },
        {
          "indexed": true,
          "internalType": "address",
          "name": "to",
          "type": "address"
        },
        {
          "indexed": false,
          "internalType": "uint256",
          "name": "id",
          "type": "uint256"
        },
        {
          "indexed": false,
          "internalType": "uint256",
          "name": "value",
          "type": "uint256"
        }
      ],
      "name": "TransferSingle",
      "type": "event"
    },
    {
      "anonymous": false,
      "inputs": [
        {
          "indexed": false,
          "internalType": "string",
          "name": "value",
          "type": "string"
        },
        {
          "indexed": true,
          "internalType": "uint256",
          "name": "id",
          "type": "uint256"
        }
      ],
      "name": "URI",
      "type": "event"
    },
    {
      "inputs": [
        {
          "internalType": "address",
          "name": "account",
          "type": "address"
        },
        {
          "internalType": "uint256",
          "name": "id",
          "type": "uint256"
        }
      ],
      "name": "balanceOf",
      "outputs": [
        {
          "internalType": "uint256",
          "name": "",
          "type": "uint256"
        }
      ],
      "stateMutability": "view",
      "type": "function",
      "constant": true
    },
    {
      "inputs": [
        {
          "internalType": "address[]",
          "name": "accounts",
          "type": "address[]"
        },
        {
          "internalType": "uint256[]",
          "name": "ids",
          "type": "uint256[]"
        }
      ],
      "name": "balanceOfBatch",
      "outputs": [
        {
          "internalType": "uint256[]",
          "name": "",
          "type": "uint256[]"
        }
      ],
      "stateMutability": "view",
      "type": "function",
      "constant": true
    },
    {
      "inputs": [
        {
          "internalType": "address",
          "name": "account",
          "type": "address"
        },
        {
          "internalType": "address",
          "name": "operator",
          "type": "address"
        }
      ],
      "name": "isApprovedForAll",
      "outputs": [
        {
          "internalType": "bool",
          "name": "",
          "type": "bool"
        }
      ],
      "stateMutability": "view",
      "type": "function",
      "constant": true
    },
    {
      "inputs": [
        {
          "internalType": "address",
          "name": "from",
          "type": "address"
        },
        {
          "internalType": "address",
          "name": "to",
          "type": "address"
        },
        {
          "internalType": "uint256[]",
          "name": "ids",
          "type": "uint256[]"
        },
        {
          "internalType": "uint256[]",
          "name": "values",
          "type": "uint256[]"
        },
        {
          "internalType": "bytes",
          "name": "data",
          "type": "bytes"
        }
      ],
      "name": "safeBatchTransferFrom",
      "outputs": [],
      "stateMutability": "nonpayable",
      "type": "function"
    },
    {
      "inputs": [
        {
          "internalType": "address",
          "name": "from",
          "type": "address"
        },
        {
          "internalType": "address",
          "name": "to",
          "type": "address"
        },
        {
          "internalType": "uint256",
          "name": "id",
          "type": "uint256"
        },
        {
          "internalType": "uint256",
          "name": "value",
          "type": "uint256"
        },
        {
          "internalType": "bytes",
          "name": "data",
          "type": "bytes"
        }
      ],
      "name": "safeTransferFrom",
      "outputs": [],
      "stateMutability": "nonpayable",
      "type": "function"
    },
    {
      "inputs": [
        {
          "internalType": "address",
          "name": "operator",
          "type": "address"
        },
        {
          "internalType": "bool",
          "name": "approved",
          "type": "bool"
        }
      ],
      "name": "setApprovalForAll",
      "outputs": [],
      "stateMutability": "nonpayable",
      "type": "function"
    },
    {
      "inputs": [
        {
          "internalType": "bytes4",
          "name": "interfaceId",
          "type": "bytes4"
        }
      ],
      "name": "supportsInterface",
      "outputs": [
        {
          "internalType": "bool",
          "name": "",
          "type": "bool"
        }
      ],
      "stateMutability": "view",
      "type": "function",
      "constant": true
    },
    {
      "inputs": [
        {
          "internalType": "uint256",
          "name": "",
          "type": "uint256"
        }
      ],
      "name": "uri",
      "outputs": [
        {
          "internalType": "string",
          "name": "",
          "type": "string"
        }
      ],
      "stateMutability": "view",
      "type": "function",
      "constant": true
    },
    {
      "inputs": [
        {
          "internalType": "uint16",
          "name": "tokenType",
          "type": "uint16"
        },
        {
          "internalType": "string",
          "name": "encryptedData",
          "type": "string"
        }
      ],
      "name": "mintToken",
      "outputs": [],
      "stateMutability": "nonpayable",
      "type": "function"
    },
    {
      "inputs": [
        {
          "internalType": "uint256",
          "name": "tokenId",
          "type": "uint256"
        },
        {
          "internalType": "string",
          "name": "newEncryptedData",
          "type": "string"
        }
      ],
      "name": "updateToken",
      "outputs": [],
      "stateMutability": "nonpayable",
      "type": "function"
    },
    {
      "inputs": [
        {
          "internalType": "address",
          "name": "consumer",
          "type": "address"
        },
        {
          "internalType": "uint256[]",
          "name": "tokenIds",
          "type": "uint256[]"
        }
      ],
      "name": "authorizeMultiple",
      "outputs": [],
      "stateMutability": "nonpayable",
      "type": "function"
    },
    {
      "inputs": [
        {
          "internalType": "address",
          "name": "consumer",
          "type": "address"
        },
        {
          "internalType": "uint256[]",
          "name": "tokenIds",
          "type": "uint256[]"
        }
      ],
      "name": "revokeMultiple",
      "outputs": [],
      "stateMutability": "nonpayable",
      "type": "function"
    },
    {
      "inputs": [
        {
          "internalType": "address",
          "name": "provider",
          "type": "address"
        }
      ],
      "name": "getTokensFromProvider",
      "outputs": [
        {
          "internalType": "uint256[]",
          "name": "",
          "type": "uint256[]"
        }
      ],
      "stateMutability": "view",
      "type": "function",
      "constant": true
    },
    {
      "inputs": [],
      "name": "getConsumers",
      "outputs": [
        {
          "components": [
            {
              "internalType": "address",
              "name": "_address",
              "type": "address"
            },
            {
              "internalType": "uint256[]",
              "name": "tokenIds",
              "type": "uint256[]"
            }
          ],
          "internalType": "struct IdentityManagement.AddressTokens[]",
          "name": "",
          "type": "tuple[]"
        }
      ],
      "stateMutability": "view",
      "type": "function",
      "constant": true
    },
    {
      "inputs": [],
      "name": "getProviders",
      "outputs": [
        {
          "components": [
            {
              "internalType": "address",
              "name": "_address",
              "type": "address"
            },
            {
              "internalType": "uint256[]",
              "name": "tokenIds",
              "type": "uint256[]"
            }
          ],
          "internalType": "struct IdentityManagement.AddressTokens[]",
          "name": "",
          "type": "tuple[]"
        }
      ],
      "stateMutability": "view",
      "type": "function",
      "constant": true
    },
    {
      "inputs": [],
      "name": "getMyTokens",
      "outputs": [
        {
          "internalType": "uint256[]",
          "name": "",
          "type": "uint256[]"
        }
      ],
      "stateMutability": "view",
      "type": "function",
      "constant": true
    },
    {
      "inputs": [
        {
          "internalType": "uint256",
          "name": "tokenType",
          "type": "uint256"
        }
      ],
      "name": "getTokensByType",
      "outputs": [
        {
          "internalType": "uint256[]",
          "name": "",
          "type": "uint256[]"
        }
      ],
      "stateMutability": "view",
      "type": "function",
      "constant": true
    },
    {
      "inputs": [
        {
          "internalType": "uint256",
          "name": "tokenId",
          "type": "uint256"
        }
      ],
      "name": "getTokenData",
      "outputs": [
        {
          "components": [
            {
              "internalType": "string",
              "name": "encryptedData",
              "type": "string"
            },
            {
              "internalType": "uint16",
              "name": "tokenType",
              "type": "uint16"
            },
            {
              "internalType": "string",
              "name": "uniqueId",
              "type": "string"
            },
            {
              "internalType": "bool",
              "name": "isCurrent",
              "type": "bool"
            },
            {
              "internalType": "uint256",
              "name": "createdAt",
              "type": "uint256"
            },
            {
              "internalType": "uint256",
              "name": "updatedAt",
              "type": "uint256"
            }
          ],
          "internalType": "struct IdentityManagement.TokenData",
          "name": "",
          "type": "tuple"
        }
      ],
      "stateMutability": "view",
      "type": "function",
      "constant": true
    }
  ],
  "bytecode": "0x608060405234801562000010575f80fd5b5060408051602081019091525f81526200002a8162000031565b50620001ab565b60026200003f8282620000e3565b5050565b634e487b7160e01b5f52604160045260245ffd5b600181811c908216806200006c57607f821691505b6020821081036200008b57634e487b7160e01b5f52602260045260245ffd5b50919050565b601f821115620000de575f81815260208120601f850160051c81016020861015620000b95750805b601f850160051c820191505b81811015620000da57828155600101620000c5565b5050505b505050565b81516001600160401b03811115620000ff57620000ff62000043565b620001178162000110845462000057565b8462000091565b602080601f8311600181146200014d575f8415620001355750858301515b5f19600386901b1c1916600185901b178555620000da565b5f85815260208120601f198616915b828110156200017d578886015182559484019460019091019084016200015c565b50858210156200019b57878501515f19600388901b60f8161c191681555b5050505050600190811b01905550565b612be080620001b95f395ff3fe608060405234801561000f575f80fd5b5060043610610110575f3560e01c80635b3b136a1161009e578063a22cb4651161006e578063a22cb46514610241578063b09afec114610254578063e985e9c514610274578063edc922a914610287578063f242432a1461028f575f80fd5b80635b3b136a146102005780636151e62e146102085780637427dac41461021b5780639956ab051461022e575f80fd5b80632eb2c2d6116100e45780632eb2c2d6146101925780633b729b86146101a55780634e1273f4146101ba57806358363ee1146101da57806358d3d333146101ed575f80fd5b8062fdd58e1461011457806301ffc9a71461013a5780630e89341c1461015d57806328051a3e1461017d575b5f80fd5b610127610122366004612191565b6102a2565b6040519081526020015b60405180910390f35b61014d6101483660046121d1565b6102c9565b6040519015158152602001610131565b61017061016b3660046121f3565b610318565b6040516101319190612257565b61019061018b366004612318565b6103aa565b005b6101906101a03660046123f4565b610552565b6101ad6105be565b60405161013191906124cf565b6101cd6101c836600461254a565b610765565b60405161013191906125f9565b6101906101e836600461260b565b61082f565b6101cd6101fb36600461264b565b610a6a565b6101cd610ada565b6101cd6102163660046121f3565b610b38565b61019061022936600461260b565b610b9e565b61019061023c366004612664565b610f65565b61019061024f366004612691565b611311565b6102676102623660046121f3565b611320565b60405161013191906126ca565b61014d61028236600461273d565b611565565b6101ad611592565b61019061029d36600461276e565b611731565b5f818152602081815260408083206001600160a01b03861684529091529020545b92915050565b5f6001600160e01b03198216636cdb3d1360e11b14806102f957506001600160e01b031982166303a24d0760e21b145b806102c357506301ffc9a760e01b6001600160e01b03198316146102c3565b606060028054610327906127cd565b80601f0160208091040260200160405190810160405280929190818152602001828054610353906127cd565b801561039e5780601f106103755761010080835404028352916020019161039e565b820191905f5260205f20905b81548152906001019060200180831161038157829003601f168201915b50505050509050919050565b5f6103b98361ffff1633611790565b90505f816040516020016103cd9190612805565b60408051601f1981840301815282825280516020918201205f8181526003835283812060c08601855288865261ffff8a1686850152938501879052600160608601819052426080870181905260a08701528454908101855593815291909120835191945060069092029091019081906104469082612865565b50602082015160018201805461ffff191661ffff909216919091179055604082015160028201906104779082612865565b50606082015160038201805460ff1916911515919091179055608082015160048083019190915560a0909201516005918201555f838152602092835260408082208054336001600160a01b03199091168117909155808352928452808220805460018181018355918452858420018690558383526006855281832061ffff8a16845285528183208054918201815583529390912090920183905590517f9d33bac6ae347b01e2f6aa4f5c0de59c986138cd1c7945b130f57c4b43b2550c9061054490849086908990612920565b60405180910390a250505050565b336001600160a01b038616811480159061057357506105718682611565565b155b156105a95760405163711bec9160e11b81526001600160a01b038083166004830152871660248201526044015b60405180910390fd5b6105b68686868686611818565b505050505050565b335f90815260086020908152604080832080548251818502810185019093528083526060949383018282801561061b57602002820191905f5260205f20905b81546001600160a01b031681526001909101906020018083116105fd575b505050505090505f815190505f816001600160401b0381111561064057610640612269565b60405190808252806020026020018201604052801561068557816020015b604080518082019091525f81526060602082015281526020019060019003908161065e5790505b5090505f5b8281101561075d575f8482815181106106a5576106a561294c565b6020908102919091018101516040805180820182526001600160a01b038316808252335f9081526009865283812091815290855282902080548351818702810187019094528084529395509093848101939083018282801561072457602002820191905f5260205f20905b815481526020019060010190808311610710575b505050505081525083838151811061073e5761073e61294c565b602002602001018190525050808061075590612974565b91505061068a565b509392505050565b606081518351146107965781518351604051635b05999160e01b8152600481019290925260248201526044016105a0565b5f83516001600160401b038111156107b0576107b0612269565b6040519080825280602002602001820160405280156107d9578160200160208202803683370190505b5090505f5b845181101561075d57602080820286010151610802906020808402870101516102a2565b8282815181106108145761081461294c565b602090810291909101015261082881612974565b90506107de565b5f5b8151811015610a65575f82828151811061084d5761084d61294c565b6020908102919091018101515f81815260049092526040909120549091506001600160a01b031633146108925760405162461bcd60e51b81526004016105a09061298c565b335f9081526007602090815260408083206001600160a01b0388168452825280832084845290915290205460ff1661090c5760405162461bcd60e51b815260206004820152601960248201527f4e6f206175746f72697a61646f2061637475616c6d656e74650000000000000060448201526064016105a0565b335f8181526007602090815260408083206001600160a01b0389168085529083528184208685528352818420805460ff19169055938352600982528083209383529290522061095b908261187d565b335f9081526009602090815260408083206001600160a01b0388168452909152812054900361099c57335f90815260086020526040902061099c908561192a565b6001600160a01b0384165f908152600b6020908152604080832033845290915290206109c8908261187d565b6001600160a01b0384165f908152600b602090815260408083203384529091528120549003610a12576001600160a01b0384165f908152600a60205260409020610a12903361192a565b6040518181526001600160a01b0385169033907fd1662978c81e15f621e7a38524048493c6e86d91a24a29619d164bef0a8d0a989060200160405180910390a35080610a5d81612974565b915050610831565b505050565b335f908152600b602090815260408083206001600160a01b038516845282529182902080548351818402810184019094528084526060939283018282801561039e57602002820191905f5260205f20905b815481526020019060010190808311610abb5750505050509050919050565b335f90815260056020908152604091829020805483518184028101840190945280845260609392830182828015610b2e57602002820191905f5260205f20905b815481526020019060010190808311610b1a575b5050505050905090565b335f90815260066020908152604080832084845282529182902080548351818402810184019094528084526060939283018282801561039e57602002820191905f5260205f2090815481526020019060010190808311610abb5750505050509050919050565b5f5b8151811015610a65575f828281518110610bbc57610bbc61294c565b6020908102919091018101515f81815260049092526040909120549091506001600160a01b03163314610c015760405162461bcd60e51b81526004016105a09061298c565b335f9081526007602090815260408083206001600160a01b0388168452825280832084845290915290205460ff1615610c6c5760405162461bcd60e51b815260206004820152600d60248201526c5961206175746f72697a61646f60981b60448201526064016105a0565b335f8181526007602090815260408083206001600160a01b0389168085529083528184208685528352818420805460ff19166001908117909155858552600984528285209185529083528184208054918201815584528284200185905592825260089052908120549003610d1657335f9081526008602090815260408220805460018101825590835291200180546001600160a01b0319166001600160a01b038616179055610dcf565b5f805b335f90815260086020526040902054811015610d8f57335f90815260086020526040902080546001600160a01b038816919083908110610d5b57610d5b61294c565b5f918252602090912001546001600160a01b031603610d7d5760019150610d8f565b80610d8781612974565b915050610d19565b5080610dcd57335f9081526008602090815260408220805460018101825590835291200180546001600160a01b0319166001600160a01b0387161790555b505b6001600160a01b0384165f818152600b602090815260408083203384528252808320805460018101825590845282842001859055928252600a9052908120549003610e50576001600160a01b0384165f908152600a602090815260408220805460018101825590835291200180546001600160a01b03191633179055610f12565b5f805b6001600160a01b0386165f908152600a6020526040902054811015610ed2576001600160a01b0386165f908152600a60205260409020805433919083908110610e9e57610e9e61294c565b5f918252602090912001546001600160a01b031603610ec05760019150610ed2565b80610eca81612974565b915050610e53565b5080610f10576001600160a01b0385165f908152600a602090815260408220805460018101825590835291200180546001600160a01b031916331790555b505b6040518181526001600160a01b0385169033907fc061fcf24d24fd46b4e00a4c037abf86a78217b49fe056bae0c506589c3b51a59060200160405180910390a35080610f5d81612974565b915050610ba0565b5f828152600460205260409020546001600160a01b03163314610f9a5760405162461bcd60e51b81526004016105a09061298c565b5f82815260036020526040902054806110015760405162461bcd60e51b8152602060048201526024808201527f4e6f2076657273696f6e7320617661696c61626c6520666f722074686973207460448201526337b5b2b760e11b60648201526084016105a0565b5f8381526003602052604081206110196001846129b3565b815481106110295761102961294c565b5f918252602080832060036006909302018201805494151560ff1990951694909417909355858252909152604081206110636001846129b3565b815481106110735761107361294c565b905f5260205f2090600602016040518060c00160405290815f82018054611099906127cd565b80601f01602080910402602001604051908101604052809291908181526020018280546110c5906127cd565b80156111105780601f106110e757610100808354040283529160200191611110565b820191905f5260205f20905b8154815290600101906020018083116110f357829003601f168201915b5050509183525050600182015461ffff16602082015260028201805460409092019161113b906127cd565b80601f0160208091040260200160405190810160405280929190818152602001828054611167906127cd565b80156111b25780601f10611189576101008083540402835291602001916111b2565b820191905f5260205f20905b81548152906001019060200180831161119557829003601f168201915b505050918352505060038281015460ff16151560208084019190915260048401546040808501919091526005909401546060938401525f898152828252848120855160c0810187528a81528784015161ffff16818501528787015196810196909652600194860194909452898152919052815493945090926080830191849161123d5761123d61294c565b5f918252602080832060069283020160040154845242938101939093528454600181018655948252919020825192939091020190819061127d9082612865565b50602082015160018201805461ffff191661ffff909216919091179055604082015160028201906112ae9082612865565b50606082015160038201805460ff19169115159190911790556080820151600482015560a09091015160059091015560405133907f24e9daeed90f46fa869a0ac39038a91d5ee4fc15061248fe1a0c61db84c4138e9061054490879087906129c6565b61131c338383611a29565b5050565b61135b6040518060c00160405280606081526020015f61ffff168152602001606081526020015f151581526020015f81526020015f81525090565b5f828152600460205260409020546001600160a01b0316338114806113aa57506001600160a01b0381165f908152600760209081526040808320338452825280832086845290915290205460ff165b6113c65760405162461bcd60e51b81526004016105a09061298c565b5f8381526003602052604090208054906113e16001836129b3565b815481106113f1576113f161294c565b905f5260205f2090600602016040518060c00160405290815f82018054611417906127cd565b80601f0160208091040260200160405190810160405280929190818152602001828054611443906127cd565b801561148e5780601f106114655761010080835404028352916020019161148e565b820191905f5260205f20905b81548152906001019060200180831161147157829003601f168201915b5050509183525050600182015461ffff1660208201526002820180546040909201916114b9906127cd565b80601f01602080910402602001604051908101604052809291908181526020018280546114e5906127cd565b80156115305780601f1061150757610100808354040283529160200191611530565b820191905f5260205f20905b81548152906001019060200180831161151357829003601f168201915b5050509183525050600382015460ff161515602082015260048201546040820152600590910154606090910152949350505050565b6001600160a01b039182165f90815260016020908152604080832093909416825291909152205460ff1690565b335f908152600a602090815260408083208054825181850281018501909352808352606094938301828280156115ef57602002820191905f5260205f20905b81546001600160a01b031681526001909101906020018083116115d1575b505050505090505f815190505f816001600160401b0381111561161457611614612269565b60405190808252806020026020018201604052801561165957816020015b604080518082019091525f8152606060208201528152602001906001900390816116325790505b5090505f5b8281101561075d575f8482815181106116795761167961294c565b6020908102919091018101516040805180820182526001600160a01b038316808252335f908152600b86528381209181529085528290208054835181870281018701909452808452939550909384810193908301828280156116f857602002820191905f5260205f20905b8154815260200190600101908083116116e4575b50505050508152508383815181106117125761171261294c565b602002602001018190525050808061172990612974565b91505061165e565b336001600160a01b038616811480159061175257506117508682611565565b155b156117835760405163711bec9160e11b81526001600160a01b038083166004830152871660248201526044016105a0565b6105b68686868686611abd565b60605f61179c84611b49565b6040516bffffffffffffffffffffffff19606086901b1660208201524260348201524460548201529091505f90607401604051602081830303815290604052805190602001209050816117ee82611be3565b6040516020016117ff9291906129e6565b6040516020818303038152906040529250505092915050565b6001600160a01b03841661184157604051632bfa23e760e11b81525f60048201526024016105a0565b6001600160a01b03851661186957604051626a0d4560e21b81525f60048201526024016105a0565b6118768585858585611cd0565b5050505050565b5f5b8254811015610a65578183828154811061189b5761189b61294c565b905f5260205f2001540361191857825483906118b9906001906129b3565b815481106118c9576118c961294c565b905f5260205f2001548382815481106118e4576118e461294c565b905f5260205f2001819055508280548061190057611900612a14565b600190038181905f5260205f20015f90559055505050565b8061192281612974565b91505061187f565b5f5b8254811015610a6557816001600160a01b03168382815481106119515761195161294c565b5f918252602090912001546001600160a01b031603611a17578254839061197a906001906129b3565b8154811061198a5761198a61294c565b905f5260205f20015f9054906101000a90046001600160a01b03168382815481106119b7576119b761294c565b905f5260205f20015f6101000a8154816001600160a01b0302191690836001600160a01b03160217905550828054806119f2576119f2612a14565b5f8281526020902081015f1990810180546001600160a01b0319169055019055505050565b80611a2181612974565b91505061192c565b6001600160a01b038216611a515760405162ced3e160e81b81525f60048201526024016105a0565b6001600160a01b038381165f81815260016020908152604080832094871680845294825291829020805460ff191686151590811790915591519182527f17307eab39ab6107e8899845ad3d59bd9653f200f220920489ca2b5937696c31910160405180910390a3505050565b6001600160a01b038416611ae657604051632bfa23e760e11b81525f60048201526024016105a0565b6001600160a01b038516611b0e57604051626a0d4560e21b81525f60048201526024016105a0565b60408051600180825260208201869052818301908152606082018590526080820190925290611b408787848487611cd0565b50505050505050565b606081600103611b735750506040805180820190915260048152634345445560e01b602082015290565b81600203611b9b5750506040805180820190915260048152634c49434560e01b602082015290565b81600303611bc35750506040805180820190915260048152630504153560e41b602082015290565b505060408051808201909152600481526323a2a72960e11b602082015290565b6040805181815260608181018352915f91906020820181803683370190505090505f5b6020811015611cc9575f848260208110611c2257611c2261294c565b1a9050611c38611c33601083612a3c565b611d23565b83611c44846002612a5d565b81518110611c5457611c5461294c565b60200101906001600160f81b03191690815f1a905350611c78611c33601083612a74565b83611c84846002612a5d565b611c8f906001612a95565b81518110611c9f57611c9f61294c565b60200101906001600160f81b03191690815f1a905350508080611cc190612974565b915050611c06565b5092915050565b611cdc85858585611d56565b6001600160a01b038416156118765782513390600103611d155760208481015190840151611d0e838989858589611f6e565b50506105b6565b6105b681878787878761208f565b5f600a8260ff1610611d4257611d3a826057612aa8565b60f81b6102c3565b611d4d826030612aa8565b60f81b92915050565b8051825114611d855781518151604051635b05999160e01b8152600481019290925260248201526044016105a0565b335f5b8351811015611e90576020818102858101820151908501909101516001600160a01b03881615611e39575f828152602081815260408083206001600160a01b038c16845290915290205481811015611e13576040516303dee4c560e01b81526001600160a01b038a1660048201526024810182905260448101839052606481018490526084016105a0565b5f838152602081815260408083206001600160a01b038d16845290915290209082900390555b6001600160a01b03871615611e7d575f828152602081815260408083206001600160a01b038b16845290915281208054839290611e77908490612a95565b90915550505b505080611e8990612974565b9050611d88565b508251600103611f105760208301515f906020840151909150856001600160a01b0316876001600160a01b0316846001600160a01b03167fc3d58168c5ae7397731d063d5bbf3d657854427343f4c083240f7aacaa2d0f628585604051611f01929190918252602082015260400190565b60405180910390a45050611876565b836001600160a01b0316856001600160a01b0316826001600160a01b03167f4a39dc06d4c0dbc64b70af90fd698a233a518aa5d07e595d983b8c0526c8f7fb8686604051611f5f929190612ac1565b60405180910390a45050505050565b6001600160a01b0384163b156105b65760405163f23a6e6160e01b81526001600160a01b0385169063f23a6e6190611fb29089908990889088908890600401612aee565b6020604051808303815f875af1925050508015611fec575060408051601f3d908101601f19168201909252611fe991810190612b32565b60015b612053573d808015612019576040519150601f19603f3d011682016040523d82523d5f602084013e61201e565b606091505b5080515f0361204b57604051632bfa23e760e11b81526001600160a01b03861660048201526024016105a0565b805181602001fd5b6001600160e01b0319811663f23a6e6160e01b14611b4057604051632bfa23e760e11b81526001600160a01b03861660048201526024016105a0565b6001600160a01b0384163b156105b65760405163bc197c8160e01b81526001600160a01b0385169063bc197c81906120d39089908990889088908890600401612b4d565b6020604051808303815f875af192505050801561210d575060408051601f3d908101601f1916820190925261210a91810190612b32565b60015b61213a573d808015612019576040519150601f19603f3d011682016040523d82523d5f602084013e61201e565b6001600160e01b0319811663bc197c8160e01b14611b4057604051632bfa23e760e11b81526001600160a01b03861660048201526024016105a0565b80356001600160a01b038116811461218c575f80fd5b919050565b5f80604083850312156121a2575f80fd5b6121ab83612176565b946020939093013593505050565b6001600160e01b0319811681146121ce575f80fd5b50565b5f602082840312156121e1575f80fd5b81356121ec816121b9565b9392505050565b5f60208284031215612203575f80fd5b5035919050565b5f5b8381101561222457818101518382015260200161220c565b50505f910152565b5f815180845261224381602086016020860161220a565b601f01601f19169290920160200192915050565b602081525f6121ec602083018461222c565b634e487b7160e01b5f52604160045260245ffd5b604051601f8201601f191681016001600160401b03811182821017156122a5576122a5612269565b604052919050565b5f82601f8301126122bc575f80fd5b81356001600160401b038111156122d5576122d5612269565b6122e8601f8201601f191660200161227d565b8181528460208386010111156122fc575f80fd5b816020850160208301375f918101602001919091529392505050565b5f8060408385031215612329575f80fd5b823561ffff8116811461233a575f80fd5b915060208301356001600160401b03811115612354575f80fd5b612360858286016122ad565b9150509250929050565b5f6001600160401b0382111561238257612382612269565b5060051b60200190565b5f82601f83011261239b575f80fd5b813560206123b06123ab8361236a565b61227d565b82815260059290921b840181019181810190868411156123ce575f80fd5b8286015b848110156123e957803583529183019183016123d2565b509695505050505050565b5f805f805f60a08688031215612408575f80fd5b61241186612176565b945061241f60208701612176565b935060408601356001600160401b038082111561243a575f80fd5b61244689838a0161238c565b9450606088013591508082111561245b575f80fd5b61246789838a0161238c565b9350608088013591508082111561247c575f80fd5b50612489888289016122ad565b9150509295509295909350565b5f8151808452602080850194508084015f5b838110156124c4578151875295820195908201906001016124a8565b509495945050505050565b5f6020808301818452808551808352604092508286019150828160051b8701018488015f5b8381101561253c57888303603f19018552815180516001600160a01b0316845287015187840187905261252987850182612496565b95880195935050908601906001016124f4565b509098975050505050505050565b5f806040838503121561255b575f80fd5b82356001600160401b0380821115612571575f80fd5b818501915085601f830112612584575f80fd5b813560206125946123ab8361236a565b82815260059290921b840181019181810190898411156125b2575f80fd5b948201945b838610156125d7576125c886612176565b825294820194908201906125b7565b965050860135925050808211156125ec575f80fd5b506123608582860161238c565b602081525f6121ec6020830184612496565b5f806040838503121561261c575f80fd5b61262583612176565b915060208301356001600160401b0381111561263f575f80fd5b6123608582860161238c565b5f6020828403121561265b575f80fd5b6121ec82612176565b5f8060408385031215612675575f80fd5b8235915060208301356001600160401b03811115612354575f80fd5b5f80604083850312156126a2575f80fd5b6126ab83612176565b9150602083013580151581146126bf575f80fd5b809150509250929050565b602081525f825160c060208401526126e560e084018261222c565b905061ffff60208501511660408401526040840151601f19848303016060850152612710828261222c565b915050606084015115156080840152608084015160a084015260a084015160c08401528091505092915050565b5f806040838503121561274e575f80fd5b61275783612176565b915061276560208401612176565b90509250929050565b5f805f805f60a08688031215612782575f80fd5b61278b86612176565b945061279960208701612176565b9350604086013592506060860135915060808601356001600160401b038111156127c1575f80fd5b612489888289016122ad565b600181811c908216806127e157607f821691505b6020821081036127ff57634e487b7160e01b5f52602260045260245ffd5b50919050565b5f825161281681846020870161220a565b9190910192915050565b601f821115610a65575f81815260208120601f850160051c810160208610156128465750805b601f850160051c820191505b818110156105b657828155600101612852565b81516001600160401b0381111561287e5761287e612269565b6128928161288c84546127cd565b84612820565b602080601f8311600181146128c5575f84156128ae5750858301515b5f19600386901b1c1916600185901b1785556105b6565b5f85815260208120601f198616915b828110156128f3578886015182559484019460019091019084016128d4565b508582101561291057878501515f19600388901b60f8161c191681555b5050505050600190811b01905550565b838152606060208201525f612938606083018561222c565b905061ffff83166040830152949350505050565b634e487b7160e01b5f52603260045260245ffd5b634e487b7160e01b5f52601160045260245ffd5b5f6001820161298557612985612960565b5060010190565b6020808252600d908201526c4e6f206175746f72697a61646f60981b604082015260600190565b818103818111156102c3576102c3612960565b828152604060208201525f6129de604083018461222c565b949350505050565b5f83516129f781846020880161220a565b835190830190612a0b81836020880161220a565b01949350505050565b634e487b7160e01b5f52603160045260245ffd5b634e487b7160e01b5f52601260045260245ffd5b5f60ff831680612a4e57612a4e612a28565b8060ff84160491505092915050565b80820281158282048414176102c3576102c3612960565b5f60ff831680612a8657612a86612a28565b8060ff84160691505092915050565b808201808211156102c3576102c3612960565b60ff81811683821601908111156102c3576102c3612960565b604081525f612ad36040830185612496565b8281036020840152612ae58185612496565b95945050505050565b6001600160a01b03868116825285166020820152604081018490526060810183905260a0608082018190525f90612b279083018461222c565b979650505050505050565b5f60208284031215612b42575f80fd5b81516121ec816121b9565b6001600160a01b0386811682528516602082015260a0604082018190525f90612b7890830186612496565b8281036060840152612b8a8186612496565b90508281036080840152612b9e818561222c565b9897505050505050505056fea264697066735822122031db7a623c1d0d849fb780d6133caa953d8c24aee7f05ba8193f368cb36afd0664736f6c63430008140033",
  "immutableReferences": {},
  "source": "// SPDX-License-Identifier: MIT\r\npragma solidity ^0.8.20;\r\n\r\nimport \"@openzeppelin/contracts/token/ERC1155/ERC1155.sol\";\r\n\r\ncontract IdentityManagement is ERC1155 {\r\n    struct TokenData {\r\n        string encryptedData; // Datos cifrados del token\r\n        uint16 tokenType;     // Tipo de documento (1: Cdula, 2: Licencia, 3: Pasaporte, 4: Otro)\r\n        string uniqueId;      // Identificador nico\r\n        bool isCurrent;       // Indica si es la versin vigente\r\n        uint256 createdAt;    // Fecha de creacin (timestamp)\r\n        uint256 updatedAt;    // Fecha de ltima actualizacin (timestamp)\r\n    }\r\n\r\n    struct AddressTokens {\r\n        address _address;\r\n        uint256[] tokenIds;\r\n    }\r\n\r\n    mapping(uint256 => TokenData[]) private tokenVersions; // tokenId -> versiones de datos\r\n    mapping(uint256 => address) private tokenProviders;   // tokenId -> proveedor\r\n    mapping(address => uint256[]) private providerTokens; // proveedor -> lista de tokenId\r\n    mapping(address => mapping(uint256 => uint256[])) private providerTokensByType; // proveedor -> tipo -> lista de tokenId\r\n    mapping(address => mapping(address => mapping(uint256 => bool))) private authorizations; // proveedor -> consumidor -> tokenId -> autorizado\r\n    mapping(address => address[]) private providerConsumers; // proveedor -> lista de consumidores\r\n    mapping(address => mapping(address => uint256[])) private consumerAccess; // proveedor -> consumidor -> lista de tokenId\r\n    mapping(address => address[]) private consumerProviders; // consumidor -> lista de proveedores\r\n    mapping(address => mapping(address => uint256[])) private reverseAccess; // consumidor -> proveedor -> lista de tokenId\r\n\r\n    event TokenCreated(uint256 tokenId, string uniqueId, uint16 tokenType, address indexed provider);\r\n    event TokenUpdated(uint256 tokenId, address indexed provider, string newData);\r\n    event AuthorizationGranted(address indexed provider, address indexed consumer, uint256 tokenId);\r\n    event AuthorizationRevoked(address indexed provider, address indexed consumer, uint256 tokenId);\r\n\r\n    constructor() ERC1155(\"\") {}\r\n\r\n    // Crear un nuevo token\r\n    function mintToken(uint16 tokenType, string memory encryptedData) public {\r\n        string memory uniqueId = generateUniqueId(tokenType, msg.sender);\r\n        uint256 tokenId = uint256(keccak256(abi.encodePacked(uniqueId))); // Convertir uniqueId a uint256\r\n\r\n        tokenVersions[tokenId].push(TokenData(encryptedData, tokenType, uniqueId, true, block.timestamp, block.timestamp));\r\n        tokenProviders[tokenId] = msg.sender;\r\n        providerTokens[msg.sender].push(tokenId);\r\n        providerTokensByType[msg.sender][tokenType].push(tokenId);\r\n\r\n        emit TokenCreated(tokenId, uniqueId, tokenType, msg.sender); // Incluimos uniqueId en el evento\r\n    }\r\n\r\n    // Actualizar un token existente\r\n    function updateToken(uint256 tokenId, string memory newEncryptedData) public {\r\n        require(tokenProviders[tokenId] == msg.sender, \"No autorizado\");\r\n\r\n        uint256 versionCount = tokenVersions[tokenId].length;\r\n        require(versionCount > 0, \"No versions available for this token\");\r\n        tokenVersions[tokenId][versionCount - 1].isCurrent = false;\r\n        TokenData memory lastVersion = tokenVersions[tokenId][versionCount - 1];\r\n        tokenVersions[tokenId].push(TokenData(newEncryptedData,lastVersion.tokenType,lastVersion.uniqueId, true, tokenVersions[tokenId][0].createdAt, block.timestamp));\r\n\r\n        emit TokenUpdated(tokenId, msg.sender, newEncryptedData);\r\n    }\r\n\r\n    // Autorizar mltiples tokens\r\n    function authorizeMultiple(address consumer, uint256[] memory tokenIds) public {\r\n        for (uint256 i = 0; i < tokenIds.length; i++) {\r\n            uint256 tokenId = tokenIds[i];\r\n            require(tokenProviders[tokenId] == msg.sender, \"No autorizado\");\r\n            require(!authorizations[msg.sender][consumer][tokenId], \"Ya autorizado\");\r\n            authorizations[msg.sender][consumer][tokenId] = true;\r\n            consumerAccess[msg.sender][consumer].push(tokenId);\r\n            //agregar el consumer a providerConsumers si y solo si el consumidor no existe en la lista\r\n            if (providerConsumers[msg.sender].length == 0) {\r\n                providerConsumers[msg.sender].push(consumer);\r\n            } else {\r\n                bool exists = false;\r\n                for (uint256 j = 0; j < providerConsumers[msg.sender].length; j++) {\r\n                    if (providerConsumers[msg.sender][j] == consumer) {\r\n                        exists = true;\r\n                        break;\r\n                    }\r\n                }\r\n                if (!exists) {\r\n                    providerConsumers[msg.sender].push(consumer);\r\n                }\r\n            }\r\n            reverseAccess[consumer][msg.sender].push(tokenId);\r\n            //agregar el provider a consumerProviders si y solo si el provider no existe en la lista\r\n            if (consumerProviders[consumer].length == 0) {\r\n                consumerProviders[consumer].push(msg.sender);\r\n            } else {\r\n                bool exists = false;\r\n                for (uint256 j = 0; j < consumerProviders[consumer].length; j++) {\r\n                    if (consumerProviders[consumer][j] == msg.sender) {\r\n                        exists = true;\r\n                        break;\r\n                    }\r\n                }\r\n                if (!exists) {\r\n                    consumerProviders[consumer].push(msg.sender);\r\n                }\r\n            }\r\n\r\n            emit AuthorizationGranted(msg.sender, consumer, tokenId);\r\n        }\r\n    }\r\n\r\n    // Revocar mltiples autorizaciones\r\n    function revokeMultiple(address consumer, uint256[] memory tokenIds) public {\r\n        for (uint256 i = 0; i < tokenIds.length; i++) {\r\n            uint256 tokenId = tokenIds[i];\r\n            require(tokenProviders[tokenId] == msg.sender, \"No autorizado\");\r\n            require(authorizations[msg.sender][consumer][tokenId], \"No autorizado actualmente\");\r\n            authorizations[msg.sender][consumer][tokenId] = false;\r\n\r\n            // Eliminar de consumerAccess\r\n            _removeToken(consumerAccess[msg.sender][consumer], tokenId);\r\n            // Eliminar de providerConsumers si no tiene ms tokens autorizados por el proveedor\r\n            if (consumerAccess[msg.sender][consumer].length == 0) {\r\n                _removeAddress(providerConsumers[msg.sender], consumer);\r\n            }\r\n            _removeToken(reverseAccess[consumer][msg.sender], tokenId);\r\n            // Eliminar de consumerProviders si no tiene ms tokens autorizados por el proveedor\r\n            if (reverseAccess[consumer][msg.sender].length == 0) {\r\n                _removeAddress(consumerProviders[consumer], msg.sender);\r\n            }\r\n\r\n            emit AuthorizationRevoked(msg.sender, consumer, tokenId);\r\n        }\r\n    }\r\n\r\n    // Obtener tokens autorizados por algun proveedor\r\n    function getTokensFromProvider(address provider) public view returns (uint256[] memory) {\r\n        return reverseAccess[msg.sender][provider];\r\n    }\r\n\r\n    // Obtener consumidores autorizados por m\r\n    function getConsumers() public view returns (AddressTokens[] memory) {\r\n        address[] memory consumersList = providerConsumers[msg.sender];\r\n        uint256 consumerCount = consumersList.length;\r\n\r\n        // Crear el array de respuesta\r\n        AddressTokens[] memory consumers = new AddressTokens[](consumerCount);\r\n\r\n        // Llenar el array con los datos de cada consumidor\r\n        for (uint256 i = 0; i < consumerCount; i++) {\r\n            address consumerAddress = consumersList[i];\r\n            consumers[i] = AddressTokens({\r\n                _address: consumerAddress,\r\n                tokenIds: consumerAccess[msg.sender][consumerAddress]\r\n            });\r\n        }\r\n\r\n        return consumers;\r\n    }\r\n\r\n    // Obtener providers que me han autorizado a mi\r\n    function getProviders() public view returns (AddressTokens[] memory) {\r\n        address[] memory providersList = consumerProviders[msg.sender];\r\n        uint256 providersCount = providersList.length;\r\n\r\n        // Crear el array de respuesta\r\n        AddressTokens[] memory providers = new AddressTokens[](providersCount);\r\n\r\n        // Llenar el array con los datos de cada consumidor\r\n        for (uint256 i = 0; i < providersCount; i++) {\r\n            address providerAddress = providersList[i];\r\n            providers[i] = AddressTokens({\r\n                _address: providerAddress,\r\n                tokenIds: reverseAccess[msg.sender][providerAddress]\r\n            });\r\n        }\r\n\r\n        return providers;\r\n    }\r\n\r\n    // Obtener mis tokens\r\n    function getMyTokens() public view returns (uint256[] memory) {\r\n        return providerTokens[msg.sender];\r\n    }\r\n\r\n    // Obtener tokens por tipo\r\n    function getTokensByType(uint256 tokenType) public view returns (uint256[] memory) {\r\n        return providerTokensByType[msg.sender][tokenType];\r\n    }\r\n\r\n    // Obtener datos del token (verifica autorizacin)\r\n    function getTokenData(uint256 tokenId) public view returns (TokenData memory) {\r\n        address provider = tokenProviders[tokenId];\r\n        require(provider == msg.sender || authorizations[provider][msg.sender][tokenId], \"No autorizado\");\r\n\r\n        uint256 versionCount = tokenVersions[tokenId].length;\r\n        return tokenVersions[tokenId][versionCount - 1];\r\n    }\r\n\r\n    // Generar ID nico\r\n    function generateUniqueId(uint256 tokenType, address provider) private view returns (string memory) {\r\n        string memory typePrefix = _getTypePrefix(tokenType);\r\n        bytes32 hashPart = keccak256(abi.encodePacked(provider, block.timestamp, block.prevrandao));\r\n        return string(abi.encodePacked(typePrefix, _toHex(hashPart)));\r\n    }\r\n\r\n    // Obtener prefijo de tipo\r\n    function _getTypePrefix(uint256 tokenType) private pure returns (string memory) {\r\n        if (tokenType == 1) return \"CEDU\"; // Cdula\r\n        if (tokenType == 2) return \"LICE\"; // Licencia\r\n        if (tokenType == 3) return \"PASP\"; // Pasaporte\r\n        return \"GENR\"; // General\r\n    }\r\n\r\n    // Convertir bytes32 a string hexadecimal\r\n    function _toHex(bytes32 data) private pure returns (string memory) {\r\n        bytes memory hexa = new bytes(64);\r\n        for (uint256 i = 0; i < 32; i++) {\r\n            uint8 byteValue = uint8(data[i]);\r\n            hexa[i * 2] = _hexChar(byteValue / 16);\r\n            hexa[i * 2 + 1] = _hexChar(byteValue % 16);\r\n        }\r\n        return string(hexa);\r\n    }\r\n\r\n    function _hexChar(uint8 value) private pure returns (bytes1) {\r\n        return value < 10 ? bytes1(value + 48) : bytes1(value + 87);\r\n    }\r\n\r\n    // Eliminar token de lista\r\n    function _removeToken(uint256[] storage list, uint256 tokenId) private {\r\n        for (uint256 i = 0; i < list.length; i++) {\r\n            if (list[i] == tokenId) {\r\n                list[i] = list[list.length - 1];\r\n                list.pop();\r\n                break;\r\n            }\r\n        }\r\n    }\r\n\r\n    // Eliminar token de lista\r\n    function _removeAddress(address[] storage list, address _address) private {\r\n        for (uint256 i = 0; i < list.length; i++) {\r\n            if (list[i] == _address) {\r\n                list[i] = list[list.length - 1];\r\n                list.pop();\r\n                break;\r\n            }\r\n        }\r\n    }\r\n}\r\n",
  "sourcePath": "D:\\Projects\\identidad_digital\\identidad_frontend\\blockchain\\contracts\\IdentityManagement.sol",
  "compiler": {
    "name": "solc",
    "version": "0.8.20+commit.a1b79de6.Emscripten.clang"
  },
  "schemaVersion": "3.4.16",
  "updatedAt": "2024-11-26T23:44:17.420Z",
  "networkType": "ethereum",
  "devdoc": {
    "errors": {
      "ERC1155InsufficientBalance(address,uint256,uint256,uint256)": [
        {
          "details": "Indicates an error related to the current `balance` of a `sender`. Used in transfers.",
          "params": {
            "balance": "Current balance for the interacting account.",
            "needed": "Minimum amount required to perform a transfer.",
            "sender": "Address whose tokens are being transferred.",
            "tokenId": "Identifier number of a token."
          }
        }
      ],
      "ERC1155InvalidApprover(address)": [
        {
          "details": "Indicates a failure with the `approver` of a token to be approved. Used in approvals.",
          "params": {
            "approver": "Address initiating an approval operation."
          }
        }
      ],
      "ERC1155InvalidArrayLength(uint256,uint256)": [
        {
          "details": "Indicates an array length mismatch between ids and values in a safeBatchTransferFrom operation. Used in batch transfers.",
          "params": {
            "idsLength": "Length of the array of token identifiers",
            "valuesLength": "Length of the array of token amounts"
          }
        }
      ],
      "ERC1155InvalidOperator(address)": [
        {
          "details": "Indicates a failure with the `operator` to be approved. Used in approvals.",
          "params": {
            "operator": "Address that may be allowed to operate on tokens without being their owner."
          }
        }
      ],
      "ERC1155InvalidReceiver(address)": [
        {
          "details": "Indicates a failure with the token `receiver`. Used in transfers.",
          "params": {
            "receiver": "Address to which tokens are being transferred."
          }
        }
      ],
      "ERC1155InvalidSender(address)": [
        {
          "details": "Indicates a failure with the token `sender`. Used in transfers.",
          "params": {
            "sender": "Address whose tokens are being transferred."
          }
        }
      ],
      "ERC1155MissingApprovalForAll(address,address)": [
        {
          "details": "Indicates a failure with the `operator`s approval. Used in transfers.",
          "params": {
            "operator": "Address that may be allowed to operate on tokens without being their owner.",
            "owner": "Address of the current owner of a token."
          }
        }
      ]
    },
    "events": {
      "ApprovalForAll(address,address,bool)": {
        "details": "Emitted when `account` grants or revokes permission to `operator` to transfer their tokens, according to `approved`."
      },
      "TransferBatch(address,address,address,uint256[],uint256[])": {
        "details": "Equivalent to multiple {TransferSingle} events, where `operator`, `from` and `to` are the same for all transfers."
      },
      "TransferSingle(address,address,address,uint256,uint256)": {
        "details": "Emitted when `value` amount of tokens of type `id` are transferred from `from` to `to` by `operator`."
      },
      "URI(string,uint256)": {
        "details": "Emitted when the URI for token type `id` changes to `value`, if it is a non-programmatic URI. If an {URI} event was emitted for `id`, the standard https://eips.ethereum.org/EIPS/eip-1155#metadata-extensions[guarantees] that `value` will equal the value returned by {IERC1155MetadataURI-uri}."
      }
    },
    "kind": "dev",
    "methods": {
      "balanceOf(address,uint256)": {
        "details": "See {IERC1155-balanceOf}."
      },
      "balanceOfBatch(address[],uint256[])": {
        "details": "See {IERC1155-balanceOfBatch}. Requirements: - `accounts` and `ids` must have the same length."
      },
      "isApprovedForAll(address,address)": {
        "details": "See {IERC1155-isApprovedForAll}."
      },
      "safeBatchTransferFrom(address,address,uint256[],uint256[],bytes)": {
        "details": "See {IERC1155-safeBatchTransferFrom}."
      },
      "safeTransferFrom(address,address,uint256,uint256,bytes)": {
        "details": "See {IERC1155-safeTransferFrom}."
      },
      "setApprovalForAll(address,bool)": {
        "details": "See {IERC1155-setApprovalForAll}."
      },
      "supportsInterface(bytes4)": {
        "details": "See {IERC165-supportsInterface}."
      },
      "uri(uint256)": {
        "details": "See {IERC1155MetadataURI-uri}. This implementation returns the same URI for *all* token types. It relies on the token type ID substitution mechanism https://eips.ethereum.org/EIPS/eip-1155#metadata[defined in the ERC]. Clients calling this function must replace the `\\{id\\}` substring with the actual token type ID."
      }
    },
    "version": 1
  },
  "userdoc": {
    "kind": "user",
    "methods": {},
    "version": 1
  }
}