{
  "contractName": "IdentityManagement",
  "abi": [
    {
      "inputs": [],
      "stateMutability": "nonpayable",
      "type": "constructor"
    },
    {
      "inputs": [
        {
          "internalType": "address",
          "name": "sender",
          "type": "address"
        },
        {
          "internalType": "uint256",
          "name": "balance",
          "type": "uint256"
        },
        {
          "internalType": "uint256",
          "name": "needed",
          "type": "uint256"
        },
        {
          "internalType": "uint256",
          "name": "tokenId",
          "type": "uint256"
        }
      ],
      "name": "ERC1155InsufficientBalance",
      "type": "error"
    },
    {
      "inputs": [
        {
          "internalType": "address",
          "name": "approver",
          "type": "address"
        }
      ],
      "name": "ERC1155InvalidApprover",
      "type": "error"
    },
    {
      "inputs": [
        {
          "internalType": "uint256",
          "name": "idsLength",
          "type": "uint256"
        },
        {
          "internalType": "uint256",
          "name": "valuesLength",
          "type": "uint256"
        }
      ],
      "name": "ERC1155InvalidArrayLength",
      "type": "error"
    },
    {
      "inputs": [
        {
          "internalType": "address",
          "name": "operator",
          "type": "address"
        }
      ],
      "name": "ERC1155InvalidOperator",
      "type": "error"
    },
    {
      "inputs": [
        {
          "internalType": "address",
          "name": "receiver",
          "type": "address"
        }
      ],
      "name": "ERC1155InvalidReceiver",
      "type": "error"
    },
    {
      "inputs": [
        {
          "internalType": "address",
          "name": "sender",
          "type": "address"
        }
      ],
      "name": "ERC1155InvalidSender",
      "type": "error"
    },
    {
      "inputs": [
        {
          "internalType": "address",
          "name": "operator",
          "type": "address"
        },
        {
          "internalType": "address",
          "name": "owner",
          "type": "address"
        }
      ],
      "name": "ERC1155MissingApprovalForAll",
      "type": "error"
    },
    {
      "anonymous": false,
      "inputs": [
        {
          "indexed": true,
          "internalType": "address",
          "name": "account",
          "type": "address"
        },
        {
          "indexed": true,
          "internalType": "address",
          "name": "operator",
          "type": "address"
        },
        {
          "indexed": false,
          "internalType": "bool",
          "name": "approved",
          "type": "bool"
        }
      ],
      "name": "ApprovalForAll",
      "type": "event"
    },
    {
      "anonymous": false,
      "inputs": [
        {
          "indexed": true,
          "internalType": "address",
          "name": "provider",
          "type": "address"
        },
        {
          "indexed": true,
          "internalType": "address",
          "name": "consumer",
          "type": "address"
        },
        {
          "indexed": false,
          "internalType": "uint256",
          "name": "tokenId",
          "type": "uint256"
        }
      ],
      "name": "AuthorizationGranted",
      "type": "event"
    },
    {
      "anonymous": false,
      "inputs": [
        {
          "indexed": true,
          "internalType": "address",
          "name": "provider",
          "type": "address"
        },
        {
          "indexed": true,
          "internalType": "address",
          "name": "consumer",
          "type": "address"
        },
        {
          "indexed": false,
          "internalType": "uint256",
          "name": "tokenId",
          "type": "uint256"
        }
      ],
      "name": "AuthorizationRevoked",
      "type": "event"
    },
    {
      "anonymous": false,
      "inputs": [
        {
          "indexed": false,
          "internalType": "uint256",
          "name": "tokenId",
          "type": "uint256"
        },
        {
          "indexed": false,
          "internalType": "string",
          "name": "uniqueId",
          "type": "string"
        },
        {
          "indexed": false,
          "internalType": "uint256",
          "name": "tokenType",
          "type": "uint256"
        },
        {
          "indexed": true,
          "internalType": "address",
          "name": "provider",
          "type": "address"
        }
      ],
      "name": "TokenCreated",
      "type": "event"
    },
    {
      "anonymous": false,
      "inputs": [
        {
          "indexed": false,
          "internalType": "uint256",
          "name": "tokenId",
          "type": "uint256"
        },
        {
          "indexed": true,
          "internalType": "address",
          "name": "provider",
          "type": "address"
        },
        {
          "indexed": false,
          "internalType": "string",
          "name": "newData",
          "type": "string"
        }
      ],
      "name": "TokenUpdated",
      "type": "event"
    },
    {
      "anonymous": false,
      "inputs": [
        {
          "indexed": true,
          "internalType": "address",
          "name": "operator",
          "type": "address"
        },
        {
          "indexed": true,
          "internalType": "address",
          "name": "from",
          "type": "address"
        },
        {
          "indexed": true,
          "internalType": "address",
          "name": "to",
          "type": "address"
        },
        {
          "indexed": false,
          "internalType": "uint256[]",
          "name": "ids",
          "type": "uint256[]"
        },
        {
          "indexed": false,
          "internalType": "uint256[]",
          "name": "values",
          "type": "uint256[]"
        }
      ],
      "name": "TransferBatch",
      "type": "event"
    },
    {
      "anonymous": false,
      "inputs": [
        {
          "indexed": true,
          "internalType": "address",
          "name": "operator",
          "type": "address"
        },
        {
          "indexed": true,
          "internalType": "address",
          "name": "from",
          "type": "address"
        },
        {
          "indexed": true,
          "internalType": "address",
          "name": "to",
          "type": "address"
        },
        {
          "indexed": false,
          "internalType": "uint256",
          "name": "id",
          "type": "uint256"
        },
        {
          "indexed": false,
          "internalType": "uint256",
          "name": "value",
          "type": "uint256"
        }
      ],
      "name": "TransferSingle",
      "type": "event"
    },
    {
      "anonymous": false,
      "inputs": [
        {
          "indexed": false,
          "internalType": "string",
          "name": "value",
          "type": "string"
        },
        {
          "indexed": true,
          "internalType": "uint256",
          "name": "id",
          "type": "uint256"
        }
      ],
      "name": "URI",
      "type": "event"
    },
    {
      "inputs": [
        {
          "internalType": "address",
          "name": "account",
          "type": "address"
        },
        {
          "internalType": "uint256",
          "name": "id",
          "type": "uint256"
        }
      ],
      "name": "balanceOf",
      "outputs": [
        {
          "internalType": "uint256",
          "name": "",
          "type": "uint256"
        }
      ],
      "stateMutability": "view",
      "type": "function",
      "constant": true
    },
    {
      "inputs": [
        {
          "internalType": "address[]",
          "name": "accounts",
          "type": "address[]"
        },
        {
          "internalType": "uint256[]",
          "name": "ids",
          "type": "uint256[]"
        }
      ],
      "name": "balanceOfBatch",
      "outputs": [
        {
          "internalType": "uint256[]",
          "name": "",
          "type": "uint256[]"
        }
      ],
      "stateMutability": "view",
      "type": "function",
      "constant": true
    },
    {
      "inputs": [
        {
          "internalType": "address",
          "name": "account",
          "type": "address"
        },
        {
          "internalType": "address",
          "name": "operator",
          "type": "address"
        }
      ],
      "name": "isApprovedForAll",
      "outputs": [
        {
          "internalType": "bool",
          "name": "",
          "type": "bool"
        }
      ],
      "stateMutability": "view",
      "type": "function",
      "constant": true
    },
    {
      "inputs": [
        {
          "internalType": "address",
          "name": "from",
          "type": "address"
        },
        {
          "internalType": "address",
          "name": "to",
          "type": "address"
        },
        {
          "internalType": "uint256[]",
          "name": "ids",
          "type": "uint256[]"
        },
        {
          "internalType": "uint256[]",
          "name": "values",
          "type": "uint256[]"
        },
        {
          "internalType": "bytes",
          "name": "data",
          "type": "bytes"
        }
      ],
      "name": "safeBatchTransferFrom",
      "outputs": [],
      "stateMutability": "nonpayable",
      "type": "function"
    },
    {
      "inputs": [
        {
          "internalType": "address",
          "name": "from",
          "type": "address"
        },
        {
          "internalType": "address",
          "name": "to",
          "type": "address"
        },
        {
          "internalType": "uint256",
          "name": "id",
          "type": "uint256"
        },
        {
          "internalType": "uint256",
          "name": "value",
          "type": "uint256"
        },
        {
          "internalType": "bytes",
          "name": "data",
          "type": "bytes"
        }
      ],
      "name": "safeTransferFrom",
      "outputs": [],
      "stateMutability": "nonpayable",
      "type": "function"
    },
    {
      "inputs": [
        {
          "internalType": "address",
          "name": "operator",
          "type": "address"
        },
        {
          "internalType": "bool",
          "name": "approved",
          "type": "bool"
        }
      ],
      "name": "setApprovalForAll",
      "outputs": [],
      "stateMutability": "nonpayable",
      "type": "function"
    },
    {
      "inputs": [
        {
          "internalType": "bytes4",
          "name": "interfaceId",
          "type": "bytes4"
        }
      ],
      "name": "supportsInterface",
      "outputs": [
        {
          "internalType": "bool",
          "name": "",
          "type": "bool"
        }
      ],
      "stateMutability": "view",
      "type": "function",
      "constant": true
    },
    {
      "inputs": [
        {
          "internalType": "uint256",
          "name": "",
          "type": "uint256"
        }
      ],
      "name": "uri",
      "outputs": [
        {
          "internalType": "string",
          "name": "",
          "type": "string"
        }
      ],
      "stateMutability": "view",
      "type": "function",
      "constant": true
    },
    {
      "inputs": [
        {
          "internalType": "uint256",
          "name": "tokenType",
          "type": "uint256"
        },
        {
          "internalType": "string",
          "name": "encryptedData",
          "type": "string"
        }
      ],
      "name": "mintToken",
      "outputs": [],
      "stateMutability": "nonpayable",
      "type": "function"
    },
    {
      "inputs": [
        {
          "internalType": "uint256",
          "name": "tokenId",
          "type": "uint256"
        },
        {
          "internalType": "string",
          "name": "newEncryptedData",
          "type": "string"
        }
      ],
      "name": "updateToken",
      "outputs": [],
      "stateMutability": "nonpayable",
      "type": "function"
    },
    {
      "inputs": [
        {
          "internalType": "address",
          "name": "consumer",
          "type": "address"
        },
        {
          "internalType": "uint256[]",
          "name": "tokenIds",
          "type": "uint256[]"
        }
      ],
      "name": "authorizeMultiple",
      "outputs": [],
      "stateMutability": "nonpayable",
      "type": "function"
    },
    {
      "inputs": [
        {
          "internalType": "address",
          "name": "consumer",
          "type": "address"
        },
        {
          "internalType": "uint256[]",
          "name": "tokenIds",
          "type": "uint256[]"
        }
      ],
      "name": "revokeMultiple",
      "outputs": [],
      "stateMutability": "nonpayable",
      "type": "function"
    },
    {
      "inputs": [
        {
          "internalType": "address",
          "name": "provider",
          "type": "address"
        }
      ],
      "name": "getTokensFromProvider",
      "outputs": [
        {
          "internalType": "uint256[]",
          "name": "",
          "type": "uint256[]"
        }
      ],
      "stateMutability": "view",
      "type": "function",
      "constant": true
    },
    {
      "inputs": [
        {
          "internalType": "uint256",
          "name": "tokenType",
          "type": "uint256"
        }
      ],
      "name": "getTokensByType",
      "outputs": [
        {
          "internalType": "uint256[]",
          "name": "",
          "type": "uint256[]"
        }
      ],
      "stateMutability": "view",
      "type": "function",
      "constant": true
    },
    {
      "inputs": [
        {
          "internalType": "uint256",
          "name": "tokenId",
          "type": "uint256"
        }
      ],
      "name": "getTokenData",
      "outputs": [
        {
          "internalType": "string",
          "name": "",
          "type": "string"
        }
      ],
      "stateMutability": "view",
      "type": "function",
      "constant": true
    }
  ],
  "bytecode": "0x608060405234801562000010575f80fd5b5060408051602081019091525f81526200002a8162000031565b50620001ab565b60026200003f8282620000e3565b5050565b634e487b7160e01b5f52604160045260245ffd5b600181811c908216806200006c57607f821691505b6020821081036200008b57634e487b7160e01b5f52602260045260245ffd5b50919050565b601f821115620000de575f81815260208120601f850160051c81016020861015620000b95750805b601f850160051c820191505b81811015620000da57828155600101620000c5565b5050505b505050565b81516001600160401b03811115620000ff57620000ff62000043565b620001178162000110845462000057565b8462000091565b602080601f8311600181146200014d575f8415620001355750858301515b5f19600386901b1c1916600185901b178555620000da565b5f85815260208120601f198616915b828110156200017d578886015182559484019460019091019084016200015c565b50858210156200019b57878501515f19600388901b60f8161c191681555b5050505050600190811b01905550565b611f2b80620001b95f395ff3fe608060405234801561000f575f80fd5b50600436106100ef575f3560e01c80636151e62e11610093578063a22cb46511610063578063a22cb46514610203578063b09afec114610216578063e985e9c514610229578063f242432a1461023c575f80fd5b80636151e62e146101b75780637427dac4146101ca578063752312a9146101dd5780639956ab05146101f0575f80fd5b80632eb2c2d6116100ce5780632eb2c2d61461015c5780634e1273f41461017157806358363ee11461019157806358d3d333146101a4575f80fd5b8062fdd58e146100f357806301ffc9a7146101195780630e89341c1461013c575b5f80fd5b6101066101013660046115e7565b61024f565b6040519081526020015b60405180910390f35b61012c610127366004611627565b610276565b6040519015158152602001610110565b61014f61014a366004611649565b6102c5565b60405161011091906116ad565b61016f61016a366004611802565b610357565b005b61018461017f3660046118a5565b6103c3565b6040516101109190611998565b61016f61019f3660046119aa565b610496565b6101846101b23660046119eb565b6105df565b6101846101c5366004611649565b61064f565b61016f6101d83660046119aa565b6106b5565b61016f6101eb366004611a04565b6107df565b61016f6101fe366004611a04565b61093d565b61016f610211366004611a51565b610b13565b61014f610224366004611649565b610b22565b61012c610237366004611a8a565b610c59565b61016f61024a366004611abb565b610c86565b5f818152602081815260408083206001600160a01b03861684529091529020545b92915050565b5f6001600160e01b03198216636cdb3d1360e11b14806102a657506001600160e01b031982166303a24d0760e21b145b8061027057506301ffc9a760e01b6001600160e01b0319831614610270565b6060600280546102d490611b1b565b80601f016020809104026020016040519081016040528092919081815260200182805461030090611b1b565b801561034b5780601f106103225761010080835404028352916020019161034b565b820191905f5260205f20905b81548152906001019060200180831161032e57829003601f168201915b50505050509050919050565b336001600160a01b038616811480159061037857506103768682610c59565b155b156103ae5760405163711bec9160e11b81526001600160a01b038083166004830152871660248201526044015b60405180910390fd5b6103bb8686868686610ce5565b505050505050565b606081518351146103f45781518351604051635b05999160e01b8152600481019290925260248201526044016103a5565b5f835167ffffffffffffffff81111561040f5761040f6116bf565b604051908082528060200260200182016040528015610438578160200160208202803683370190505b5090505f5b845181101561048e576020808202860101516104619060208084028701015161024f565b82828151811061047357610473611b53565b602090810291909101015261048781611b7b565b905061043d565b509392505050565b5f5b81518110156105da575f8282815181106104b4576104b4611b53565b602090810291909101810151335f9081526007835260408082206001600160a01b03891683528452808220838352909352919091205490915060ff1661050c5760405162461bcd60e51b81526004016103a590611b93565b335f8181526007602090815260408083206001600160a01b0389168085529083528184208685528352818420805460ff19169055938352600882528083209383529290522061055b9082610d4a565b6001600160a01b0384165f90815260096020908152604080832033845290915290206105879082610d4a565b6040518181526001600160a01b0385169033907fd1662978c81e15f621e7a38524048493c6e86d91a24a29619d164bef0a8d0a989060200160405180910390a350806105d281611b7b565b915050610498565b505050565b335f9081526009602090815260408083206001600160a01b038516845282529182902080548351818402810184019094528084526060939283018282801561034b57602002820191905f5260205f20905b8154815260200190600101908083116106305750505050509050919050565b335f90815260066020908152604080832084845282529182902080548351818402810184019094528084526060939283018282801561034b57602002820191905f5260205f20908154815260200190600101908083116106305750505050509050919050565b5f5b81518110156105da575f8282815181106106d3576106d3611b53565b6020908102919091018101515f81815260049092526040909120549091506001600160a01b031633146107185760405162461bcd60e51b81526004016103a590611b93565b335f8181526007602090815260408083206001600160a01b0389168085529083528184208685528352818420805460ff19166001908117909155858552600884528285208286528452828520805480830182559086528486200187905581855260098452828520868652845282852080549182018155855293839020909301859055518481529192917fc061fcf24d24fd46b4e00a4c037abf86a78217b49fe056bae0c506589c3b51a5910160405180910390a350806107d781611b7b565b9150506106b7565b5f6107ea8333610df7565b90505f816040516020016107fe9190611bba565b60408051601f1981840301815282825280516020918201205f81815260038352838120608086018552888652600186850181905242958701869052606087019590955280549485018155815291909120835191945060049092029091019081906108689082611c1a565b506020828101516001838101805460ff19169215159290921790915560408085015160028501556060909401516003909301929092555f848152600482528381208054336001600160a01b0319909116811790915580825260058352848220805480860182559083528383200186905580825260068352848220898352835284822080549485018155825291902090910183905590517fd306967beeb39489cb6724748118d29c59bd0f0e17a5dd711b4f4d3dea3a1c479061092f90849086908990611cd6565b60405180910390a250505050565b5f828152600460205260409020546001600160a01b031633146109725760405162461bcd60e51b81526004016103a590611b93565b5f82815260036020526040902054806109d95760405162461bcd60e51b8152602060048201526024808201527f4e6f2076657273696f6e7320617661696c61626c6520666f722074686973207460448201526337b5b2b760e11b60648201526084016103a5565b5f8381526003602052604081206109f1600184611cfe565b81548110610a0157610a01611b53565b5f918252602080832060016004909302018201805494151560ff19909516949094179093558582526003808452604080842081516080810183528881528087019490945288855291909452805490939192918301918491610a6457610a64611b53565b5f9182526020808320600492830201600201548452429381019390935284546001810186559482529190208251929390910201908190610aa49082611c1a565b50602082015160018201805460ff191691151591909117905560408083015160028301556060909201516003909101555133907f24e9daeed90f46fa869a0ac39038a91d5ee4fc15061248fe1a0c61db84c4138e90610b069086908690611d11565b60405180910390a2505050565b610b1e338383610e7f565b5050565b5f818152600460205260409020546060906001600160a01b031633811480610b7457506001600160a01b0381165f908152600760209081526040808320338452825280832086845290915290205460ff165b610b905760405162461bcd60e51b81526004016103a590611b93565b5f838152600360205260409020805490610bab600183611cfe565b81548110610bbb57610bbb611b53565b905f5260205f2090600402015f018054610bd490611b1b565b80601f0160208091040260200160405190810160405280929190818152602001828054610c0090611b1b565b8015610c4b5780601f10610c2257610100808354040283529160200191610c4b565b820191905f5260205f20905b815481529060010190602001808311610c2e57829003601f168201915b505050505092505050919050565b6001600160a01b039182165f90815260016020908152604080832093909416825291909152205460ff1690565b336001600160a01b0386168114801590610ca75750610ca58682610c59565b155b15610cd85760405163711bec9160e11b81526001600160a01b038083166004830152871660248201526044016103a5565b6103bb8686868686610f13565b6001600160a01b038416610d0e57604051632bfa23e760e11b81525f60048201526024016103a5565b6001600160a01b038516610d3657604051626a0d4560e21b81525f60048201526024016103a5565b610d438585858585610f9f565b5050505050565b5f5b82548110156105da5781838281548110610d6857610d68611b53565b905f5260205f20015403610de55782548390610d8690600190611cfe565b81548110610d9657610d96611b53565b905f5260205f200154838281548110610db157610db1611b53565b905f5260205f20018190555082805480610dcd57610dcd611d31565b600190038181905f5260205f20015f90559055505050565b80610def81611b7b565b915050610d4c565b60605f610e0384610ff2565b6040516bffffffffffffffffffffffff19606086901b1660208201524260348201524460548201529091505f9060740160405160208183030381529060405280519060200120905081610e558261108c565b604051602001610e66929190611d45565b6040516020818303038152906040529250505092915050565b6001600160a01b038216610ea75760405162ced3e160e81b81525f60048201526024016103a5565b6001600160a01b038381165f81815260016020908152604080832094871680845294825291829020805460ff191686151590811790915591519182527f17307eab39ab6107e8899845ad3d59bd9653f200f220920489ca2b5937696c31910160405180910390a3505050565b6001600160a01b038416610f3c57604051632bfa23e760e11b81525f60048201526024016103a5565b6001600160a01b038516610f6457604051626a0d4560e21b81525f60048201526024016103a5565b60408051600180825260208201869052818301908152606082018590526080820190925290610f968787848487610f9f565b50505050505050565b610fab85858585611179565b6001600160a01b03841615610d435782513390600103610fe45760208481015190840151610fdd838989858589611391565b50506103bb565b6103bb8187878787876114b2565b60608160010361101c5750506040805180820190915260048152634345445560e01b602082015290565b816002036110445750506040805180820190915260048152634c49434560e01b602082015290565b8160030361106c5750506040805180820190915260048152630504153560e41b602082015290565b505060408051808201909152600481526323a2a72960e11b602082015290565b6040805181815260608181018352915f91906020820181803683370190505090505f5b6020811015611172575f8482602081106110cb576110cb611b53565b1a90506110e16110dc601083611d87565b611599565b836110ed846002611da8565b815181106110fd576110fd611b53565b60200101906001600160f81b03191690815f1a9053506111216110dc601083611dbf565b8361112d846002611da8565b611138906001611de0565b8151811061114857611148611b53565b60200101906001600160f81b03191690815f1a90535050808061116a90611b7b565b9150506110af565b5092915050565b80518251146111a85781518151604051635b05999160e01b8152600481019290925260248201526044016103a5565b335f5b83518110156112b3576020818102858101820151908501909101516001600160a01b0388161561125c575f828152602081815260408083206001600160a01b038c16845290915290205481811015611236576040516303dee4c560e01b81526001600160a01b038a1660048201526024810182905260448101839052606481018490526084016103a5565b5f838152602081815260408083206001600160a01b038d16845290915290209082900390555b6001600160a01b038716156112a0575f828152602081815260408083206001600160a01b038b1684529091528120805483929061129a908490611de0565b90915550505b5050806112ac90611b7b565b90506111ab565b5082516001036113335760208301515f906020840151909150856001600160a01b0316876001600160a01b0316846001600160a01b03167fc3d58168c5ae7397731d063d5bbf3d657854427343f4c083240f7aacaa2d0f628585604051611324929190918252602082015260400190565b60405180910390a45050610d43565b836001600160a01b0316856001600160a01b0316826001600160a01b03167f4a39dc06d4c0dbc64b70af90fd698a233a518aa5d07e595d983b8c0526c8f7fb8686604051611382929190611df3565b60405180910390a45050505050565b6001600160a01b0384163b156103bb5760405163f23a6e6160e01b81526001600160a01b0385169063f23a6e61906113d59089908990889088908890600401611e20565b6020604051808303815f875af192505050801561140f575060408051601f3d908101601f1916820190925261140c91810190611e64565b60015b611476573d80801561143c576040519150601f19603f3d011682016040523d82523d5f602084013e611441565b606091505b5080515f0361146e57604051632bfa23e760e11b81526001600160a01b03861660048201526024016103a5565b805181602001fd5b6001600160e01b0319811663f23a6e6160e01b14610f9657604051632bfa23e760e11b81526001600160a01b03861660048201526024016103a5565b6001600160a01b0384163b156103bb5760405163bc197c8160e01b81526001600160a01b0385169063bc197c81906114f69089908990889088908890600401611e7f565b6020604051808303815f875af1925050508015611530575060408051601f3d908101601f1916820190925261152d91810190611e64565b60015b61155d573d80801561143c576040519150601f19603f3d011682016040523d82523d5f602084013e611441565b6001600160e01b0319811663bc197c8160e01b14610f9657604051632bfa23e760e11b81526001600160a01b03861660048201526024016103a5565b5f600a8260ff16106115b8576115b0826057611edc565b60f81b610270565b6115c3826030611edc565b60f81b92915050565b80356001600160a01b03811681146115e2575f80fd5b919050565b5f80604083850312156115f8575f80fd5b611601836115cc565b946020939093013593505050565b6001600160e01b031981168114611624575f80fd5b50565b5f60208284031215611637575f80fd5b81356116428161160f565b9392505050565b5f60208284031215611659575f80fd5b5035919050565b5f5b8381101561167a578181015183820152602001611662565b50505f910152565b5f8151808452611699816020860160208601611660565b601f01601f19169290920160200192915050565b602081525f6116426020830184611682565b634e487b7160e01b5f52604160045260245ffd5b604051601f8201601f1916810167ffffffffffffffff811182821017156116fc576116fc6116bf565b604052919050565b5f67ffffffffffffffff82111561171d5761171d6116bf565b5060051b60200190565b5f82601f830112611736575f80fd5b8135602061174b61174683611704565b6116d3565b82815260059290921b84018101918181019086841115611769575f80fd5b8286015b84811015611784578035835291830191830161176d565b509695505050505050565b5f67ffffffffffffffff8311156117a8576117a86116bf565b6117bb601f8401601f19166020016116d3565b90508281528383830111156117ce575f80fd5b828260208301375f602084830101529392505050565b5f82601f8301126117f3575f80fd5b6116428383356020850161178f565b5f805f805f60a08688031215611816575f80fd5b61181f866115cc565b945061182d602087016115cc565b9350604086013567ffffffffffffffff80821115611849575f80fd5b61185589838a01611727565b9450606088013591508082111561186a575f80fd5b61187689838a01611727565b9350608088013591508082111561188b575f80fd5b50611898888289016117e4565b9150509295509295909350565b5f80604083850312156118b6575f80fd5b823567ffffffffffffffff808211156118cd575f80fd5b818501915085601f8301126118e0575f80fd5b813560206118f061174683611704565b82815260059290921b8401810191818101908984111561190e575f80fd5b948201945b8386101561193357611924866115cc565b82529482019490820190611913565b96505086013592505080821115611948575f80fd5b5061195585828601611727565b9150509250929050565b5f8151808452602080850194508084015f5b8381101561198d57815187529582019590820190600101611971565b509495945050505050565b602081525f611642602083018461195f565b5f80604083850312156119bb575f80fd5b6119c4836115cc565b9150602083013567ffffffffffffffff8111156119df575f80fd5b61195585828601611727565b5f602082840312156119fb575f80fd5b611642826115cc565b5f8060408385031215611a15575f80fd5b82359150602083013567ffffffffffffffff811115611a32575f80fd5b8301601f81018513611a42575f80fd5b6119558582356020840161178f565b5f8060408385031215611a62575f80fd5b611a6b836115cc565b915060208301358015158114611a7f575f80fd5b809150509250929050565b5f8060408385031215611a9b575f80fd5b611aa4836115cc565b9150611ab2602084016115cc565b90509250929050565b5f805f805f60a08688031215611acf575f80fd5b611ad8866115cc565b9450611ae6602087016115cc565b93506040860135925060608601359150608086013567ffffffffffffffff811115611b0f575f80fd5b611898888289016117e4565b600181811c90821680611b2f57607f821691505b602082108103611b4d57634e487b7160e01b5f52602260045260245ffd5b50919050565b634e487b7160e01b5f52603260045260245ffd5b634e487b7160e01b5f52601160045260245ffd5b5f60018201611b8c57611b8c611b67565b5060010190565b6020808252600d908201526c4e6f206175746f72697a61646f60981b604082015260600190565b5f8251611bcb818460208701611660565b9190910192915050565b601f8211156105da575f81815260208120601f850160051c81016020861015611bfb5750805b601f850160051c820191505b818110156103bb57828155600101611c07565b815167ffffffffffffffff811115611c3457611c346116bf565b611c4881611c428454611b1b565b84611bd5565b602080601f831160018114611c7b575f8415611c645750858301515b5f19600386901b1c1916600185901b1785556103bb565b5f85815260208120601f198616915b82811015611ca957888601518255948401946001909101908401611c8a565b5085821015611cc657878501515f19600388901b60f8161c191681555b5050505050600190811b01905550565b838152606060208201525f611cee6060830185611682565b9050826040830152949350505050565b8181038181111561027057610270611b67565b828152604060208201525f611d296040830184611682565b949350505050565b634e487b7160e01b5f52603160045260245ffd5b5f8351611d56818460208801611660565b835190830190611d6a818360208801611660565b01949350505050565b634e487b7160e01b5f52601260045260245ffd5b5f60ff831680611d9957611d99611d73565b8060ff84160491505092915050565b808202811582820484141761027057610270611b67565b5f60ff831680611dd157611dd1611d73565b8060ff84160691505092915050565b8082018082111561027057610270611b67565b604081525f611e05604083018561195f565b8281036020840152611e17818561195f565b95945050505050565b6001600160a01b03868116825285166020820152604081018490526060810183905260a0608082018190525f90611e5990830184611682565b979650505050505050565b5f60208284031215611e74575f80fd5b81516116428161160f565b6001600160a01b0386811682528516602082015260a0604082018190525f90611eaa9083018661195f565b8281036060840152611ebc818661195f565b90508281036080840152611ed08185611682565b98975050505050505050565b60ff818116838216019081111561027057610270611b6756fea264697066735822122063a3886257a7be00b7ae81c44d3738356a2bf070c5abd8e56b269068f89457a764736f6c63430008140033",
  "immutableReferences": {},
  "source": "// SPDX-License-Identifier: MIT\r\npragma solidity ^0.8.20;\r\n\r\nimport \"@openzeppelin/contracts/token/ERC1155/ERC1155.sol\";\r\n\r\ncontract IdentityManagement is ERC1155 {\r\n    struct TokenData {\r\n        string encryptedData; // Datos cifrados del token\r\n        bool isCurrent;       // Indica si es la versin vigente\r\n        uint256 createdAt;    // Fecha de creacin (timestamp)\r\n        uint256 updatedAt;    // Fecha de ltima actualizacin (timestamp)\r\n    }\r\n\r\n    mapping(uint256 => TokenData[]) private tokenVersions; // tokenId -> versiones de datos\r\n    mapping(uint256 => address) private tokenProviders;   // tokenId -> proveedor\r\n    mapping(address => uint256[]) private providerTokens; // proveedor -> lista de tokenId\r\n    mapping(address => mapping(uint256 => uint256[])) private providerTokensByType; // proveedor -> tipo -> lista de tokenId\r\n    mapping(address => mapping(address => mapping(uint256 => bool))) private authorizations; // proveedor -> consumidor -> tokenId -> autorizado\r\n    mapping(address => mapping(address => uint256[])) private consumerAccess; // proveedor -> consumidor -> lista de tokenId\r\n    mapping(address => mapping(address => uint256[])) private reverseAccess; // consumidor -> proveedor -> lista de tokenId\r\n\r\n    event TokenCreated(uint256 tokenId, string uniqueId, uint256 tokenType, address indexed provider);\r\n    event TokenUpdated(uint256 tokenId, address indexed provider, string newData);\r\n    event AuthorizationGranted(address indexed provider, address indexed consumer, uint256 tokenId);\r\n    event AuthorizationRevoked(address indexed provider, address indexed consumer, uint256 tokenId);\r\n\r\n    constructor() ERC1155(\"\") {}\r\n\r\n    // Crear un nuevo token\r\n    function mintToken(uint256 tokenType, string memory encryptedData) public {\r\n        string memory uniqueId = generateUniqueId(tokenType, msg.sender);\r\n        uint256 tokenId = uint256(keccak256(abi.encodePacked(uniqueId))); // Convertir uniqueId a uint256\r\n\r\n        tokenVersions[tokenId].push(TokenData(encryptedData, true, block.timestamp, block.timestamp));\r\n        tokenProviders[tokenId] = msg.sender;\r\n        providerTokens[msg.sender].push(tokenId);\r\n        providerTokensByType[msg.sender][tokenType].push(tokenId);\r\n\r\n        emit TokenCreated(tokenId, uniqueId, tokenType, msg.sender); // Incluimos uniqueId en el evento\r\n    }\r\n\r\n    // Actualizar un token existente\r\n    function updateToken(uint256 tokenId, string memory newEncryptedData) public {\r\n        require(tokenProviders[tokenId] == msg.sender, \"No autorizado\");\r\n\r\n        uint256 versionCount = tokenVersions[tokenId].length;\r\n        require(versionCount > 0, \"No versions available for this token\");\r\n        tokenVersions[tokenId][versionCount - 1].isCurrent = false;\r\n\r\n        tokenVersions[tokenId].push(TokenData(newEncryptedData, true, tokenVersions[tokenId][0].createdAt, block.timestamp));\r\n\r\n        emit TokenUpdated(tokenId, msg.sender, newEncryptedData);\r\n    }\r\n\r\n    // Autorizar mltiples tokens\r\n    function authorizeMultiple(address consumer, uint256[] memory tokenIds) public {\r\n        for (uint256 i = 0; i < tokenIds.length; i++) {\r\n            uint256 tokenId = tokenIds[i];\r\n            require(tokenProviders[tokenId] == msg.sender, \"No autorizado\");\r\n            authorizations[msg.sender][consumer][tokenId] = true;\r\n            consumerAccess[msg.sender][consumer].push(tokenId);\r\n            reverseAccess[consumer][msg.sender].push(tokenId);\r\n\r\n            emit AuthorizationGranted(msg.sender, consumer, tokenId);\r\n        }\r\n    }\r\n\r\n    // Revocar mltiples autorizaciones\r\n    function revokeMultiple(address consumer, uint256[] memory tokenIds) public {\r\n        for (uint256 i = 0; i < tokenIds.length; i++) {\r\n            uint256 tokenId = tokenIds[i];\r\n            require(authorizations[msg.sender][consumer][tokenId], \"No autorizado\");\r\n            authorizations[msg.sender][consumer][tokenId] = false;\r\n\r\n            // Eliminar de consumerAccess\r\n            _removeToken(consumerAccess[msg.sender][consumer], tokenId);\r\n            _removeToken(reverseAccess[consumer][msg.sender], tokenId);\r\n\r\n            emit AuthorizationRevoked(msg.sender, consumer, tokenId);\r\n        }\r\n    }\r\n\r\n    // Obtener tokens autorizados por proveedor\r\n    function getTokensFromProvider(address provider) public view returns (uint256[] memory) {\r\n        return reverseAccess[msg.sender][provider];\r\n    }\r\n\r\n    // Obtener tokens por tipo\r\n    function getTokensByType(uint256 tokenType) public view returns (uint256[] memory) {\r\n        return providerTokensByType[msg.sender][tokenType];\r\n    }\r\n\r\n    // Obtener datos del token (verifica autorizacin)\r\n    function getTokenData(uint256 tokenId) public view returns (string memory) {\r\n        address provider = tokenProviders[tokenId];\r\n        require(provider == msg.sender || authorizations[provider][msg.sender][tokenId], \"No autorizado\");\r\n\r\n        uint256 versionCount = tokenVersions[tokenId].length;\r\n        return tokenVersions[tokenId][versionCount - 1].encryptedData;\r\n    }\r\n\r\n    // Generar ID nico\r\n    function generateUniqueId(uint256 tokenType, address provider) private view returns (string memory) {\r\n        string memory typePrefix = _getTypePrefix(tokenType);\r\n        bytes32 hashPart = keccak256(abi.encodePacked(provider, block.timestamp, block.prevrandao));\r\n        return string(abi.encodePacked(typePrefix, _toHex(hashPart)));\r\n    }\r\n\r\n    // Obtener prefijo de tipo\r\n    function _getTypePrefix(uint256 tokenType) private pure returns (string memory) {\r\n        if (tokenType == 1) return \"CEDU\"; // Cdula\r\n        if (tokenType == 2) return \"LICE\"; // Licencia\r\n        if (tokenType == 3) return \"PASP\"; // Pasaporte\r\n        return \"GENR\"; // General\r\n    }\r\n\r\n    // Convertir bytes32 a string hexadecimal\r\n    function _toHex(bytes32 data) private pure returns (string memory) {\r\n        bytes memory hexa = new bytes(64);\r\n        for (uint256 i = 0; i < 32; i++) {\r\n            uint8 byteValue = uint8(data[i]);\r\n            hexa[i * 2] = _hexChar(byteValue / 16);\r\n            hexa[i * 2 + 1] = _hexChar(byteValue % 16);\r\n        }\r\n        return string(hexa);\r\n    }\r\n\r\n    function _hexChar(uint8 value) private pure returns (bytes1) {\r\n        return value < 10 ? bytes1(value + 48) : bytes1(value + 87);\r\n    }\r\n\r\n    // Eliminar token de lista\r\n    function _removeToken(uint256[] storage list, uint256 tokenId) private {\r\n        for (uint256 i = 0; i < list.length; i++) {\r\n            if (list[i] == tokenId) {\r\n                list[i] = list[list.length - 1];\r\n                list.pop();\r\n                break;\r\n            }\r\n        }\r\n    }\r\n}\r\n",
  "sourcePath": "D:\\Projects\\identidad_digital\\identidad_frontend\\blockchain\\contracts\\IdentityManagement.sol",
  "compiler": {
    "name": "solc",
    "version": "0.8.20+commit.a1b79de6.Emscripten.clang"
  },
  "schemaVersion": "3.4.16",
  "updatedAt": "2024-11-21T23:19:14.126Z",
  "networkType": "ethereum",
  "devdoc": {
    "errors": {
      "ERC1155InsufficientBalance(address,uint256,uint256,uint256)": [
        {
          "details": "Indicates an error related to the current `balance` of a `sender`. Used in transfers.",
          "params": {
            "balance": "Current balance for the interacting account.",
            "needed": "Minimum amount required to perform a transfer.",
            "sender": "Address whose tokens are being transferred.",
            "tokenId": "Identifier number of a token."
          }
        }
      ],
      "ERC1155InvalidApprover(address)": [
        {
          "details": "Indicates a failure with the `approver` of a token to be approved. Used in approvals.",
          "params": {
            "approver": "Address initiating an approval operation."
          }
        }
      ],
      "ERC1155InvalidArrayLength(uint256,uint256)": [
        {
          "details": "Indicates an array length mismatch between ids and values in a safeBatchTransferFrom operation. Used in batch transfers.",
          "params": {
            "idsLength": "Length of the array of token identifiers",
            "valuesLength": "Length of the array of token amounts"
          }
        }
      ],
      "ERC1155InvalidOperator(address)": [
        {
          "details": "Indicates a failure with the `operator` to be approved. Used in approvals.",
          "params": {
            "operator": "Address that may be allowed to operate on tokens without being their owner."
          }
        }
      ],
      "ERC1155InvalidReceiver(address)": [
        {
          "details": "Indicates a failure with the token `receiver`. Used in transfers.",
          "params": {
            "receiver": "Address to which tokens are being transferred."
          }
        }
      ],
      "ERC1155InvalidSender(address)": [
        {
          "details": "Indicates a failure with the token `sender`. Used in transfers.",
          "params": {
            "sender": "Address whose tokens are being transferred."
          }
        }
      ],
      "ERC1155MissingApprovalForAll(address,address)": [
        {
          "details": "Indicates a failure with the `operator`s approval. Used in transfers.",
          "params": {
            "operator": "Address that may be allowed to operate on tokens without being their owner.",
            "owner": "Address of the current owner of a token."
          }
        }
      ]
    },
    "events": {
      "ApprovalForAll(address,address,bool)": {
        "details": "Emitted when `account` grants or revokes permission to `operator` to transfer their tokens, according to `approved`."
      },
      "TransferBatch(address,address,address,uint256[],uint256[])": {
        "details": "Equivalent to multiple {TransferSingle} events, where `operator`, `from` and `to` are the same for all transfers."
      },
      "TransferSingle(address,address,address,uint256,uint256)": {
        "details": "Emitted when `value` amount of tokens of type `id` are transferred from `from` to `to` by `operator`."
      },
      "URI(string,uint256)": {
        "details": "Emitted when the URI for token type `id` changes to `value`, if it is a non-programmatic URI. If an {URI} event was emitted for `id`, the standard https://eips.ethereum.org/EIPS/eip-1155#metadata-extensions[guarantees] that `value` will equal the value returned by {IERC1155MetadataURI-uri}."
      }
    },
    "kind": "dev",
    "methods": {
      "balanceOf(address,uint256)": {
        "details": "See {IERC1155-balanceOf}."
      },
      "balanceOfBatch(address[],uint256[])": {
        "details": "See {IERC1155-balanceOfBatch}. Requirements: - `accounts` and `ids` must have the same length."
      },
      "isApprovedForAll(address,address)": {
        "details": "See {IERC1155-isApprovedForAll}."
      },
      "safeBatchTransferFrom(address,address,uint256[],uint256[],bytes)": {
        "details": "See {IERC1155-safeBatchTransferFrom}."
      },
      "safeTransferFrom(address,address,uint256,uint256,bytes)": {
        "details": "See {IERC1155-safeTransferFrom}."
      },
      "setApprovalForAll(address,bool)": {
        "details": "See {IERC1155-setApprovalForAll}."
      },
      "supportsInterface(bytes4)": {
        "details": "See {IERC165-supportsInterface}."
      },
      "uri(uint256)": {
        "details": "See {IERC1155MetadataURI-uri}. This implementation returns the same URI for *all* token types. It relies on the token type ID substitution mechanism https://eips.ethereum.org/EIPS/eip-1155#metadata[defined in the ERC]. Clients calling this function must replace the `\\{id\\}` substring with the actual token type ID."
      }
    },
    "version": 1
  },
  "userdoc": {
    "kind": "user",
    "methods": {},
    "version": 1
  }
}