{
  "contractName": "IdentityManagementV1",
  "abi": [
    {
      "anonymous": false,
      "inputs": [
        {
          "indexed": true,
          "internalType": "address",
          "name": "provider",
          "type": "address"
        },
        {
          "indexed": true,
          "internalType": "address",
          "name": "consumer",
          "type": "address"
        }
      ],
      "name": "AuthorizationGranted",
      "type": "event"
    },
    {
      "anonymous": false,
      "inputs": [
        {
          "indexed": true,
          "internalType": "address",
          "name": "provider",
          "type": "address"
        },
        {
          "indexed": true,
          "internalType": "address",
          "name": "consumer",
          "type": "address"
        }
      ],
      "name": "AuthorizationRevoked",
      "type": "event"
    },
    {
      "anonymous": false,
      "inputs": [
        {
          "indexed": true,
          "internalType": "address",
          "name": "provider",
          "type": "address"
        },
        {
          "indexed": false,
          "internalType": "string",
          "name": "docType",
          "type": "string"
        },
        {
          "indexed": false,
          "internalType": "string",
          "name": "docHash",
          "type": "string"
        }
      ],
      "name": "DocumentRegistered",
      "type": "event"
    },
    {
      "inputs": [
        {
          "internalType": "string",
          "name": "docType",
          "type": "string"
        },
        {
          "internalType": "string",
          "name": "docHash",
          "type": "string"
        }
      ],
      "name": "registerProvider",
      "outputs": [],
      "stateMutability": "nonpayable",
      "type": "function"
    },
    {
      "inputs": [
        {
          "internalType": "address",
          "name": "consumer",
          "type": "address"
        }
      ],
      "name": "authorizeConsumer",
      "outputs": [],
      "stateMutability": "nonpayable",
      "type": "function"
    },
    {
      "inputs": [
        {
          "internalType": "address",
          "name": "consumer",
          "type": "address"
        }
      ],
      "name": "revokeAuthorization",
      "outputs": [],
      "stateMutability": "nonpayable",
      "type": "function"
    },
    {
      "inputs": [],
      "name": "getMyDocuments",
      "outputs": [
        {
          "components": [
            {
              "internalType": "string",
              "name": "docType",
              "type": "string"
            },
            {
              "internalType": "string",
              "name": "docHash",
              "type": "string"
            }
          ],
          "internalType": "struct IdentityManagementV1.Document[]",
          "name": "",
          "type": "tuple[]"
        }
      ],
      "stateMutability": "view",
      "type": "function"
    },
    {
      "inputs": [
        {
          "internalType": "address",
          "name": "provider",
          "type": "address"
        }
      ],
      "name": "getDocuments",
      "outputs": [
        {
          "components": [
            {
              "internalType": "string",
              "name": "docType",
              "type": "string"
            },
            {
              "internalType": "string",
              "name": "docHash",
              "type": "string"
            }
          ],
          "internalType": "struct IdentityManagementV1.Document[]",
          "name": "",
          "type": "tuple[]"
        }
      ],
      "stateMutability": "view",
      "type": "function"
    },
    {
      "inputs": [],
      "name": "getAuthorizedConsumers",
      "outputs": [
        {
          "internalType": "address[]",
          "name": "",
          "type": "address[]"
        }
      ],
      "stateMutability": "view",
      "type": "function"
    }
  ],
  "bytecode": "0x608060405234801561000f575f80fd5b50610d468061001d5f395ff3fe608060405234801561000f575f80fd5b5060043610610060575f3560e01c806327f50a2d146100645780633ea14cf81461008d57806374ca8971146100a25780638cf391b0146100b75780639111976e146100ca578063b48028e3146100d2575b5f80fd5b6100776100723660046108f8565b6100e5565b6040516100849190610968565b60405180910390f35b610095610309565b60405161008491906109eb565b6100b56100b0366004610ad4565b610371565b005b6100b56100c53660046108f8565b610414565b610077610561565b6100b56100e03660046108f8565b6106e5565b6060336001600160a01b038316148061012057506001600160a01b0382165f90815260016020908152604080832033845290915290205460ff165b61017f5760405162461bcd60e51b815260206004820152602560248201527f4e6f206175746f72697a61646f207061726120766572206c6f7320646f63756d604482015264656e746f7360d81b60648201526084015b60405180910390fd5b6001600160a01b0382165f9081526020818152604080832080548251818502810185019093528083529193909284015b828210156102fe578382905f5260205f2090600202016040518060400160405290815f820180546101df90610b34565b80601f016020809104026020016040519081016040528092919081815260200182805461020b90610b34565b80156102565780601f1061022d57610100808354040283529160200191610256565b820191905f5260205f20905b81548152906001019060200180831161023957829003601f168201915b5050505050815260200160018201805461026f90610b34565b80601f016020809104026020016040519081016040528092919081815260200182805461029b90610b34565b80156102e65780601f106102bd576101008083540402835291602001916102e6565b820191905f5260205f20905b8154815290600101906020018083116102c957829003601f168201915b505050505081525050815260200190600101906101af565b505050509050919050565b335f9081526002602090815260409182902080548351818402810184019094528084526060939283018282801561036757602002820191905f5260205f20905b81546001600160a01b03168152600190910190602001808311610349575b5050505050905090565b335f90815260208181526040808320815180830190925285825281830185905280546001810182559084529190922082516002909202019081906103b59082610bba565b50602082015160018201906103ca9082610bba565b505050336001600160a01b03167fc336c37eb4f74d671217f209080e7eb26abf00a56d748cb23bc034ae63bd0ee98383604051610408929190610c76565b60405180910390a25050565b6001600160a01b038116330361046c5760405162461bcd60e51b815260206004820181905260248201527f4e6f20707565646573206175746f72697a617274652061207469206d69736d6f6044820152606401610176565b335f9081526001602090815260408083206001600160a01b038516845290915290205460ff16156104df5760405162461bcd60e51b815260206004820181905260248201527f456c20636f6e73756d69646f722079612065737461206175746f72697a61646f6044820152606401610176565b335f8181526001602081815260408084206001600160a01b038716808652908352818520805460ff1916851790558585526002835281852080549485018155855291842090920180546001600160a01b0319168217905590519092917f7221372411f0405c58b7b48e3951c448bb594dad75f79bf6aefa69af430d606291a350565b335f90815260208181526040808320805482518185028101850190935280835260609492939192909184015b828210156106dc578382905f5260205f2090600202016040518060400160405290815f820180546105bd90610b34565b80601f01602080910402602001604051908101604052809291908181526020018280546105e990610b34565b80156106345780601f1061060b57610100808354040283529160200191610634565b820191905f5260205f20905b81548152906001019060200180831161061757829003601f168201915b5050505050815260200160018201805461064d90610b34565b80601f016020809104026020016040519081016040528092919081815260200182805461067990610b34565b80156106c45780601f1061069b576101008083540402835291602001916106c4565b820191905f5260205f20905b8154815290600101906020018083116106a757829003601f168201915b5050505050815250508152602001906001019061058d565b50505050905090565b335f9081526001602090815260408083206001600160a01b038516845290915290205460ff166107575760405162461bcd60e51b815260206004820181905260248201527f456c20636f6e73756d69646f72206e6f2065737461206175746f72697a61646f6044820152606401610176565b335f9081526001602090815260408083206001600160a01b03851684529091528120805460ff191690555b335f908152600260205260409020548110156108bf57335f90815260026020526040902080546001600160a01b0384169190839081106107c4576107c4610ca3565b5f918252602090912001546001600160a01b0316036108ad57335f90815260026020526040902080546107f990600190610ccb565b8154811061080957610809610ca3565b5f9182526020808320909101543383526002909152604090912080546001600160a01b03909216918390811061084157610841610ca3565b5f91825260208083209190910180546001600160a01b0319166001600160a01b03949094169390931790925533815260029091526040902080548061088857610888610ce4565b5f8281526020902081015f1990810180546001600160a01b03191690550190556108bf565b806108b781610cf8565b915050610782565b506040516001600160a01b0382169033907f203a04209f1ae06508132ac82e6ad3b28d9e9ba11f97cc9934b4d9e6a83dd24e905f90a350565b5f60208284031215610908575f80fd5b81356001600160a01b038116811461091e575f80fd5b9392505050565b5f81518084525f5b818110156109495760208185018101518683018201520161092d565b505f602082860101526020601f19601f83011685010191505092915050565b5f6020808301818452808551808352604092508286019150828160051b8701018488015f5b838110156109dd57888303603f19018552815180518785526109b188860182610925565b91890151858303868b01529190506109c98183610925565b96890196945050509086019060010161098d565b509098975050505050505050565b602080825282518282018190525f9190848201906040850190845b81811015610a2b5783516001600160a01b031683529284019291840191600101610a06565b50909695505050505050565b634e487b7160e01b5f52604160045260245ffd5b5f82601f830112610a5a575f80fd5b813567ffffffffffffffff80821115610a7557610a75610a37565b604051601f8301601f19908116603f01168101908282118183101715610a9d57610a9d610a37565b81604052838152866020858801011115610ab5575f80fd5b836020870160208301375f602085830101528094505050505092915050565b5f8060408385031215610ae5575f80fd5b823567ffffffffffffffff80821115610afc575f80fd5b610b0886838701610a4b565b93506020850135915080821115610b1d575f80fd5b50610b2a85828601610a4b565b9150509250929050565b600181811c90821680610b4857607f821691505b602082108103610b6657634e487b7160e01b5f52602260045260245ffd5b50919050565b601f821115610bb5575f81815260208120601f850160051c81016020861015610b925750805b601f850160051c820191505b81811015610bb157828155600101610b9e565b5050505b505050565b815167ffffffffffffffff811115610bd457610bd4610a37565b610be881610be28454610b34565b84610b6c565b602080601f831160018114610c1b575f8415610c045750858301515b5f19600386901b1c1916600185901b178555610bb1565b5f85815260208120601f198616915b82811015610c4957888601518255948401946001909101908401610c2a565b5085821015610c6657878501515f19600388901b60f8161c191681555b5050505050600190811b01905550565b604081525f610c886040830185610925565b8281036020840152610c9a8185610925565b95945050505050565b634e487b7160e01b5f52603260045260245ffd5b634e487b7160e01b5f52601160045260245ffd5b81810381811115610cde57610cde610cb7565b92915050565b634e487b7160e01b5f52603160045260245ffd5b5f60018201610d0957610d09610cb7565b506001019056fea2646970667358221220a665e01a30a13c5b752f914d1ec04d6e6c93d648132c900fe29755e2efe7810064736f6c63430008140033",
  "immutableReferences": {},
  "source": "// SPDX-License-Identifier: MIT\r\npragma solidity >=0.4.22 <0.9.0;\r\n\r\ncontract IdentityManagementV1 {\r\n    struct Document {\r\n        string docType;\r\n        string docHash;\r\n    }\r\n\r\n    mapping(address => Document[]) private documents;\r\n    mapping(address => mapping(address => bool)) private authorizations;\r\n    mapping(address => address[]) private authorizedConsumers;\r\n\r\n    event DocumentRegistered(address indexed provider, string docType, string docHash);\r\n    event AuthorizationGranted(address indexed provider, address indexed consumer);\r\n    event AuthorizationRevoked(address indexed provider, address indexed consumer);\r\n\r\n    function registerProvider(string memory docType, string memory docHash) public {\r\n        documents[msg.sender].push(Document(docType, docHash));\r\n        emit DocumentRegistered(msg.sender, docType, docHash);\r\n    }\r\n\r\n    function authorizeConsumer(address consumer) public {\r\n        require(msg.sender != consumer, \"No puedes autorizarte a ti mismo\");\r\n        require(!authorizations[msg.sender][consumer], \"El consumidor ya esta autorizado\");\r\n        \r\n        authorizations[msg.sender][consumer] = true;\r\n        authorizedConsumers[msg.sender].push(consumer);\r\n        emit AuthorizationGranted(msg.sender, consumer);\r\n    }\r\n\r\n    function revokeAuthorization(address consumer) public {\r\n        require(authorizations[msg.sender][consumer], \"El consumidor no esta autorizado\");\r\n        \r\n        authorizations[msg.sender][consumer] = false;\r\n        \r\n        // Eliminar el consumidor de la lista de autorizados\r\n        for (uint i = 0; i < authorizedConsumers[msg.sender].length; i++) {\r\n            if (authorizedConsumers[msg.sender][i] == consumer) {\r\n                authorizedConsumers[msg.sender][i] = authorizedConsumers[msg.sender][authorizedConsumers[msg.sender].length - 1];\r\n                authorizedConsumers[msg.sender].pop();\r\n                break;\r\n            }\r\n        }\r\n        \r\n        emit AuthorizationRevoked(msg.sender, consumer);\r\n    }\r\n\r\n    function getMyDocuments() public view returns (Document[] memory) {\r\n        return documents[msg.sender];\r\n    }\r\n\r\n    function getDocuments(address provider) public view returns (Document[] memory) {\r\n        require(msg.sender == provider || authorizations[provider][msg.sender], \"No autorizado para ver los documentos\");\r\n        return documents[provider];\r\n    }\r\n\r\n    function getAuthorizedConsumers() public view returns (address[] memory) {\r\n        return authorizedConsumers[msg.sender];\r\n    }\r\n}\r\n",
  "sourcePath": "D:\\Projects\\identidad_digital\\identidad_frontend\\blockchain\\contracts\\IdentityManagementV1.sol",
  "compiler": {
    "name": "solc",
    "version": "0.8.20+commit.a1b79de6.Emscripten.clang"
  },
  "schemaVersion": "3.4.16",
  "updatedAt": "2024-11-21T15:31:13.690Z",
  "devdoc": {
    "kind": "dev",
    "methods": {},
    "version": 1
  },
  "userdoc": {
    "kind": "user",
    "methods": {},
    "version": 1
  }
}