{
  "contractName": "IdentityManagement",
  "abi": [
    {
      "inputs": [
        {
          "internalType": "string",
          "name": "docType",
          "type": "string"
        },
        {
          "internalType": "string",
          "name": "docHash",
          "type": "string"
        }
      ],
      "name": "registerProvider",
      "outputs": [],
      "stateMutability": "nonpayable",
      "type": "function"
    },
    {
      "inputs": [
        {
          "internalType": "address",
          "name": "consumer",
          "type": "address"
        }
      ],
      "name": "authorizeConsumer",
      "outputs": [],
      "stateMutability": "nonpayable",
      "type": "function"
    },
    {
      "inputs": [
        {
          "internalType": "address",
          "name": "consumer",
          "type": "address"
        }
      ],
      "name": "revokeAuthorization",
      "outputs": [],
      "stateMutability": "nonpayable",
      "type": "function"
    },
    {
      "inputs": [],
      "name": "getMyDocuments",
      "outputs": [
        {
          "components": [
            {
              "internalType": "string",
              "name": "docType",
              "type": "string"
            },
            {
              "internalType": "string",
              "name": "docHash",
              "type": "string"
            }
          ],
          "internalType": "struct IdentityManagement.Document[]",
          "name": "",
          "type": "tuple[]"
        }
      ],
      "stateMutability": "view",
      "type": "function",
      "constant": true
    },
    {
      "inputs": [
        {
          "internalType": "address",
          "name": "provider",
          "type": "address"
        }
      ],
      "name": "getDocuments",
      "outputs": [
        {
          "components": [
            {
              "internalType": "string",
              "name": "docType",
              "type": "string"
            },
            {
              "internalType": "string",
              "name": "docHash",
              "type": "string"
            }
          ],
          "internalType": "struct IdentityManagement.Document[]",
          "name": "",
          "type": "tuple[]"
        }
      ],
      "stateMutability": "view",
      "type": "function",
      "constant": true
    }
  ],
  "bytecode": "0x608060405234801561001057600080fd5b5061092c806100206000396000f3fe608060405234801561001057600080fd5b50600436106100575760003560e01c806327f50a2d1461005c57806374ca8971146100855780638cf391b01461009a5780639111976e146100ad578063b48028e3146100b5575b600080fd5b61006f61006a3660046106b3565b6100c8565b60405161007c9190610730565b60405180910390f35b610098610093366004610858565b6102f6565b005b6100986100a83660046106b3565b610362565b61006f6103ed565b6100986100c33660046106b3565b610579565b6001600160a01b038116600090815260016020908152604080832033845290915290205460609060ff16806101055750336001600160a01b038316145b6101645760405162461bcd60e51b815260206004820152602560248201527f4e6f206175746f72697a61646f207061726120766572206c6f7320646f63756d604482015264656e746f7360d81b60648201526084015b60405180910390fd5b6001600160a01b03821660009081526020818152604080832080548251818502810185019093528083529193909284015b828210156102eb57838290600052602060002090600202016040518060400160405290816000820180546101c8906108bc565b80601f01602080910402602001604051908101604052809291908181526020018280546101f4906108bc565b80156102415780601f1061021657610100808354040283529160200191610241565b820191906000526020600020905b81548152906001019060200180831161022457829003601f168201915b5050505050815260200160018201805461025a906108bc565b80601f0160208091040260200160405190810160405280929190818152602001828054610286906108bc565b80156102d35780601f106102a8576101008083540402835291602001916102d3565b820191906000526020600020905b8154815290600101906020018083116102b657829003601f168201915b50505050508152505081526020019060010190610195565b505050509050919050565b336000908152602081815260408083208151808301909252858252818301859052805460018101825590845292829020815180519294600202909101926103429284929091019061061a565b50602082810151805161035b926001850192019061061a565b5050505050565b6001600160a01b03811633036103ba5760405162461bcd60e51b815260206004820181905260248201527f4e6f20707565646573206175746f72697a617274652061207469206d69736d6f604482015260640161015b565b3360009081526001602081815260408084206001600160a01b03959095168452939052919020805460ff19169091179055565b33600090815260208181526040808320805482518185028101850190935280835260609492939192909184015b82821015610570578382906000526020600020906002020160405180604001604052908160008201805461044d906108bc565b80601f0160208091040260200160405190810160405280929190818152602001828054610479906108bc565b80156104c65780601f1061049b576101008083540402835291602001916104c6565b820191906000526020600020905b8154815290600101906020018083116104a957829003601f168201915b505050505081526020016001820180546104df906108bc565b80601f016020809104026020016040519081016040528092919081815260200182805461050b906108bc565b80156105585780601f1061052d57610100808354040283529160200191610558565b820191906000526020600020905b81548152906001019060200180831161053b57829003601f168201915b5050505050815250508152602001906001019061041a565b50505050905090565b3360009081526001602090815260408083206001600160a01b038516845290915290205460ff166105ec5760405162461bcd60e51b815260206004820181905260248201527f456c20636f6e73756d69646f72206e6f2065737461206175746f72697a61646f604482015260640161015b565b3360009081526001602090815260408083206001600160a01b0394909416835292905220805460ff19169055565b828054610626906108bc565b90600052602060002090601f016020900481019282610648576000855561068e565b82601f1061066157805160ff191683800117855561068e565b8280016001018555821561068e579182015b8281111561068e578251825591602001919060010190610673565b5061069a92915061069e565b5090565b5b8082111561069a576000815560010161069f565b6000602082840312156106c557600080fd5b81356001600160a01b03811681146106dc57600080fd5b9392505050565b6000815180845260005b81811015610709576020818501810151868301820152016106ed565b8181111561071b576000602083870101525b50601f01601f19169290920160200192915050565b60006020808301818452808551808352604092508286019150828160051b87010184880160005b838110156107a757888303603f190185528151805187855261077b888601826106e3565b91890151858303868b015291905061079381836106e3565b968901969450505090860190600101610757565b509098975050505050505050565b634e487b7160e01b600052604160045260246000fd5b600082601f8301126107dc57600080fd5b813567ffffffffffffffff808211156107f7576107f76107b5565b604051601f8301601f19908116603f0116810190828211818310171561081f5761081f6107b5565b8160405283815286602085880101111561083857600080fd5b836020870160208301376000602085830101528094505050505092915050565b6000806040838503121561086b57600080fd5b823567ffffffffffffffff8082111561088357600080fd5b61088f868387016107cb565b935060208501359150808211156108a557600080fd5b506108b2858286016107cb565b9150509250929050565b600181811c908216806108d057607f821691505b6020821081036108f057634e487b7160e01b600052602260045260246000fd5b5091905056fea2646970667358221220f583eea2baf359e070b9cc2aae5f167424c902d33704b077d7b8bb290e5821c764736f6c634300080d0033",
  "immutableReferences": {},
  "source": "// SPDX-License-Identifier: MIT\r\npragma solidity >=0.4.22 <0.9.0;\r\n\r\ncontract IdentityManagement {\r\n    struct Document {\r\n        string docType;\r\n        string docHash;\r\n    }\r\n\r\n    mapping(address => Document[]) private documents;\r\n    mapping(address => mapping(address => bool)) private authorizations;\r\n\r\n    function registerProvider(string memory docType, string memory docHash) public {\r\n        documents[msg.sender].push(Document(docType, docHash));\r\n    }\r\n\r\n    function authorizeConsumer(address consumer) public {\r\n        require(msg.sender != consumer, \"No puedes autorizarte a ti mismo\");\r\n        authorizations[msg.sender][consumer] = true;\r\n    }\r\n\r\n    function revokeAuthorization(address consumer) public {\r\n        require(authorizations[msg.sender][consumer], \"El consumidor no esta autorizado\");\r\n        authorizations[msg.sender][consumer] = false;\r\n    }\r\n\r\n    function getMyDocuments() public view returns (Document[] memory) {\r\n        return documents[msg.sender];\r\n    }\r\n\r\n    function getDocuments(address provider) public view returns (Document[] memory) {\r\n        // Permitir al proveedor ver sus propios documentos o verificar autorizacin\r\n        require(authorizations[provider][msg.sender] || msg.sender == provider, \"No autorizado para ver los documentos\");\r\n        return documents[provider];\r\n    }\r\n}\r\n",
  "sourcePath": "D:\\Projects\\identidad_digital\\identidad_frontend\\blockchain\\contracts\\IdentityManagement.sol",
  "compiler": {
    "name": "solc",
    "version": "0.8.13+commit.abaa5c0e.Emscripten.clang"
  },
  "schemaVersion": "3.4.16",
  "updatedAt": "2024-10-30T19:18:21.765Z",
  "networkType": "ethereum",
  "devdoc": {
    "kind": "dev",
    "methods": {},
    "version": 1
  },
  "userdoc": {
    "kind": "user",
    "methods": {},
    "version": 1
  }
}